{
  "contractName": "Controller",
  "abi": [
    {
      "inputs": [],
      "payable": false,
      "stateMutability": "nonpayable",
      "type": "constructor"
    },
    {
      "constant": false,
      "inputs": [
        {
          "name": "_object",
          "type": "address"
        },
        {
          "name": "_method",
          "type": "string"
        },
        {
          "name": "_params",
          "type": "string"
        }
      ],
      "name": "callMethod",
      "outputs": [
        {
          "name": "",
          "type": "string"
        }
      ],
      "payable": false,
      "stateMutability": "nonpayable",
      "type": "function"
    }
  ],
  "bytecode": "0x608060405234801561001057600080fd5b5061197a806100206000396000f300608060405260043610610041576000357c0100000000000000000000000000000000000000000000000000000000900463ffffffff168063bdef6a0b14610046575b600080fd5b34801561005257600080fd5b5061006d60048036036100689190810190610392565b610083565b60405161007a91906104b2565b60405180910390f35b606060405180807f504f5354000000000000000000000000000000000000000000000000000000008152506004019050604051809103902060001916836040518082805190602001908083835b6020831015156100f557805182526020820191506020810190506020830392506100d0565b6001836020036101000a038019825116818451168082178552505050505050905001915050604051809103902060001916141561020a5773__Helpers_______________________________632c6e75988361014f6102c2565b61015991906104b2565b604051809103906000f080158015610175573d6000803e3d6000fd5b506040518263ffffffff167c01000000000000000000000000000000000000000000000000000000000281526004016101ae9190610497565b60006040518083038186803b1580156101c657600080fd5b505af41580156101da573d6000803e3d6000fd5b505050506040513d6000823e3d601f19601f820116820180604052506102039190810190610411565b90506102bb565b8373ffffffffffffffffffffffffffffffffffffffff1663d464669584846040518363ffffffff167c01000000000000000000000000000000000000000000000000000000000281526004016102619291906104d4565b600060405180830381600087803b15801561027b57600080fd5b505af115801561028f573d6000803e3d6000fd5b505050506040513d6000823e3d601f19601f820116820180604052506102b89190810190610411565b90505b9392505050565b60405161132c8061061583390190565b60006102de823561058f565b905092915050565b600082601f83011215156102f957600080fd5b813561030c61030782610538565b61050b565b9150808252602083016020830185838301111561032857600080fd5b6103338382846105c1565b50505092915050565b600082601f830112151561034f57600080fd5b815161036261035d82610538565b61050b565b9150808252602083016020830185838301111561037e57600080fd5b6103898382846105d0565b50505092915050565b6000806000606084860312156103a757600080fd5b60006103b5868287016102d2565b935050602084013567ffffffffffffffff8111156103d257600080fd5b6103de868287016102e6565b925050604084013567ffffffffffffffff8111156103fb57600080fd5b610407868287016102e6565b9150509250925092565b60006020828403121561042357600080fd5b600082015167ffffffffffffffff81111561043d57600080fd5b6104498482850161033c565b91505092915050565b61045b816105af565b82525050565b600061046c82610564565b8084526104808160208601602086016105d0565b61048981610603565b602085010191505092915050565b60006020820190506104ac6000830184610452565b92915050565b600060208201905081810360008301526104cc8184610461565b905092915050565b600060408201905081810360008301526104ee8185610461565b905081810360208301526105028184610461565b90509392505050565b6000604051905081810181811067ffffffffffffffff8211171561052e57600080fd5b8060405250919050565b600067ffffffffffffffff82111561054f57600080fd5b601f19601f8301169050602081019050919050565b600081519050919050565b600073ffffffffffffffffffffffffffffffffffffffff82169050919050565b600073ffffffffffffffffffffffffffffffffffffffff82169050919050565b60006105ba8261056f565b9050919050565b82818337600083830152505050565b60005b838110156105ee5780820151818401526020810190506105d3565b838111156105fd576000848401525b50505050565b6000601f19601f8301169050919050560060806040523480156200001157600080fd5b506040516200132c3803806200132c833981018060405262000037919081019062000121565b8062000042620000b2565b6200004e9190620001a2565b604051809103906000f0801580156200006b573d6000803e3d6000fd5b506000806101000a81548173ffffffffffffffffffffffffffffffffffffffff021916908373ffffffffffffffffffffffffffffffffffffffff1602179055505062000273565b60405161076e8062000bbe83390190565b600082601f8301121515620000d757600080fd5b8151620000ee620000e882620001f4565b620001c6565b915080825260208301602083018583830111156200010b57600080fd5b620001188382846200022c565b50505092915050565b6000602082840312156200013457600080fd5b600082015167ffffffffffffffff8111156200014f57600080fd5b6200015d84828501620000c3565b91505092915050565b6000620001738262000221565b808452620001898160208601602086016200022c565b620001948162000262565b602085010191505092915050565b60006020820190508181036000830152620001be818462000166565b905092915050565b6000604051905081810181811067ffffffffffffffff82111715620001ea57600080fd5b8060405250919050565b600067ffffffffffffffff8211156200020c57600080fd5b601f19601f8301169050602081019050919050565b600081519050919050565b60005b838110156200024c5780820151818401526020810190506200022f565b838111156200025c576000848401525b50505050565b6000601f19601f8301169050919050565b61093b80620002836000396000f30060806040526004361061004c576000357c0100000000000000000000000000000000000000000000000000000000900463ffffffff16806350cd4df214610051578063d46466951461007c575b600080fd5b34801561005d57600080fd5b506100666100b9565b60405161007391906107af565b60405180910390f35b34801561008857600080fd5b506100a3600480360361009e91908101906106fe565b6100de565b6040516100b091906107ca565b60405180910390f35b6000809054906101000a900473ffffffffffffffffffffffffffffffffffffffff1681565b606060405180807f47455400000000000000000000000000000000000000000000000000000000008152506003019050604051809103902060001916836040518082805190602001908083835b602083101515610150578051825260208201915060208101905060208303925061012b565b6001836020036101000a0380198251168184511680821785525050505050509050019150506040518091039020600019161415610250576000809054906101000a900473ffffffffffffffffffffffffffffffffffffffff1673ffffffffffffffffffffffffffffffffffffffff1663e31f2d6e6040518163ffffffff167c0100000000000000000000000000000000000000000000000000000000028152600401600060405180830381600087803b15801561020c57600080fd5b505af1158015610220573d6000803e3d6000fd5b505050506040513d6000823e3d601f19601f82011682018060405250610249919081019061067c565b9050610574565b60405180807f50555400000000000000000000000000000000000000000000000000000000008152506003019050604051809103902060001916836040518082805190602001908083835b6020831015156102c0578051825260208201915060208101905060208303925061029b565b6001836020036101000a03801982511681845116808217855250505050505090500191505060405180910390206000191614156103cb576000809054906101000a900473ffffffffffffffffffffffffffffffffffffffff1673ffffffffffffffffffffffffffffffffffffffff1663ffec3894836040518263ffffffff167c010000000000000000000000000000000000000000000000000000000002815260040161036d91906107ca565b600060405180830381600087803b15801561038757600080fd5b505af115801561039b573d6000803e3d6000fd5b505050506040513d6000823e3d601f19601f820116820180604052506103c491908101906106bd565b9050610574565b60405180807f44454c45544500000000000000000000000000000000000000000000000000008152506006019050604051809103902060001916836040518082805190602001908083835b60208310151561043b5780518252602082019150602081019050602083039250610416565b6001836020036101000a038019825116818451168082178552505050505050905001915050604051809103902060001916141561053b576000809054906101000a900473ffffffffffffffffffffffffffffffffffffffff1673ffffffffffffffffffffffffffffffffffffffff16639bc187496040518163ffffffff167c0100000000000000000000000000000000000000000000000000000000028152600401600060405180830381600087803b1580156104f757600080fd5b505af115801561050b573d6000803e3d6000fd5b505050506040513d6000823e3d601f19601f8201168201806040525061053491908101906106bd565b9050610574565b6040805190810160405280600e81526020017f556e6b6e6f776e206d6574686f6400000000000000000000000000000000000081525090505b92915050565b600082601f830112151561058d57600080fd5b81516105a061059b82610819565b6107ec565b915080825260208301602083018583830111156105bc57600080fd5b6105c78382846108bd565b50505092915050565b600082601f83011215156105e357600080fd5b81356105f66105f182610845565b6107ec565b9150808252602083016020830185838301111561061257600080fd5b61061d8382846108ae565b50505092915050565b600082601f830112151561063957600080fd5b815161064c61064782610845565b6107ec565b9150808252602083016020830185838301111561066857600080fd5b6106738382846108bd565b50505092915050565b60006020828403121561068e57600080fd5b600082015167ffffffffffffffff8111156106a857600080fd5b6106b48482850161057a565b91505092915050565b6000602082840312156106cf57600080fd5b600082015167ffffffffffffffff8111156106e957600080fd5b6106f584828501610626565b91505092915050565b6000806040838503121561071157600080fd5b600083013567ffffffffffffffff81111561072b57600080fd5b610737858286016105d0565b925050602083013567ffffffffffffffff81111561075457600080fd5b610760858286016105d0565b9150509250929050565b6107738161089c565b82525050565b600061078482610871565b8084526107988160208601602086016108bd565b6107a1816108f0565b602085010191505092915050565b60006020820190506107c4600083018461076a565b92915050565b600060208201905081810360008301526107e48184610779565b905092915050565b6000604051905081810181811067ffffffffffffffff8211171561080f57600080fd5b8060405250919050565b600067ffffffffffffffff82111561083057600080fd5b601f19601f8301169050602081019050919050565b600067ffffffffffffffff82111561085c57600080fd5b601f19601f8301169050602081019050919050565b600081519050919050565b600073ffffffffffffffffffffffffffffffffffffffff82169050919050565b60006108a78261087c565b9050919050565b82818337600083830152505050565b60005b838110156108db5780820151818401526020810190506108c0565b838111156108ea576000848401525b50505050565b6000601f19601f83011690509190505600a265627a7a72305820f8a2ffcb86761f31c8b96b9476963b6c0ace7c233213f9a7218f09db4b66143e6c6578706572696d656e74616cf50037608060405234801561001057600080fd5b5060405161076e38038061076e8339810180604052610032919081019061014a565b806000908051906020019061004892919061004f565b5050610217565b828054600181600116156101000203166002900490600052602060002090601f016020900481019282601f1061009057805160ff19168380011785556100be565b828001600101855582156100be579182015b828111156100bd5782518255916020019190600101906100a2565b5b5090506100cb91906100cf565b5090565b6100f191905b808211156100ed5760008160009055506001016100d5565b5090565b90565b600082601f830112151561010757600080fd5b815161011a610115826101b8565b61018b565b9150808252602083016020830185838301111561013657600080fd5b6101418382846101e4565b50505092915050565b60006020828403121561015c57600080fd5b600082015167ffffffffffffffff81111561017657600080fd5b610182848285016100f4565b91505092915050565b6000604051905081810181811067ffffffffffffffff821117156101ae57600080fd5b8060405250919050565b600067ffffffffffffffff8211156101cf57600080fd5b601f19601f8301169050602081019050919050565b60005b838110156102025780820151818401526020810190506101e7565b83811115610211576000848401525b50505050565b610548806102266000396000f300608060405260043610610057576000357c0100000000000000000000000000000000000000000000000000000000900463ffffffff1680639bc187491461005c578063e31f2d6e14610087578063ffec3894146100b2575b600080fd5b34801561006857600080fd5b506100716100ef565b60405161007e919061042a565b60405180910390f35b34801561009357600080fd5b5061009c61010a565b6040516100a99190610408565b60405180910390f35b3480156100be57600080fd5b506100d960048036036100d4919081019061035b565b6101a8565b6040516100e6919061042a565b60405180910390f35b60603373ffffffffffffffffffffffffffffffffffffffff16ff5b60008054600181600116156101000203166002900480601f0160208091040260200160405190810160405280929190818152602001828054600181600116156101000203166002900480156101a05780601f10610175576101008083540402835291602001916101a0565b820191906000526020600020905b81548152906001019060200180831161018357829003601f168201915b505050505081565b606081600090805190602001906101c0929190610260565b8054600181600116156101000203166002900480601f0160208091040260200160405190810160405280929190818152602001828054600181600116156101000203166002900480156102545780601f1061022957610100808354040283529160200191610254565b820191906000526020600020905b81548152906001019060200180831161023757829003601f168201915b50505050509050919050565b828054600181600116156101000203166002900490600052602060002090601f016020900481019282601f106102a157805160ff19168380011785556102cf565b828001600101855582156102cf579182015b828111156102ce5782518255916020019190600101906102b3565b5b5090506102dc91906102e0565b5090565b61030291905b808211156102fe5760008160009055506001016102e6565b5090565b90565b600082601f830112151561031857600080fd5b813561032b61032682610479565b61044c565b9150808252602083016020830185838301111561034757600080fd5b6103528382846104bb565b50505092915050565b60006020828403121561036d57600080fd5b600082013567ffffffffffffffff81111561038757600080fd5b61039384828501610305565b91505092915050565b60006103a7826104b0565b8084526103bb8160208601602086016104ca565b6103c4816104fd565b602085010191505092915050565b60006103dd826104a5565b8084526103f18160208601602086016104ca565b6103fa816104fd565b602085010191505092915050565b6000602082019050818103600083015261042281846103d2565b905092915050565b60006020820190508181036000830152610444818461039c565b905092915050565b6000604051905081810181811067ffffffffffffffff8211171561046f57600080fd5b8060405250919050565b600067ffffffffffffffff82111561049057600080fd5b601f19601f8301169050602081019050919050565b600081519050919050565b600081519050919050565b82818337600083830152505050565b60005b838110156104e85780820151818401526020810190506104cd565b838111156104f7576000848401525b50505050565b6000601f19601f83011690509190505600a265627a7a7230582031d497f87bb2d543cc036eaa074f09e108abd6f82aef1bf99c9171295207fba86c6578706572696d656e74616cf50037a265627a7a72305820b21530f343a85161b53314d68cd206c9c7b673d51b6a7c81244c0d8f965c08876c6578706572696d656e74616cf50037",
  "source": "pragma experimental ABIEncoderV2;\n\nimport \"./Helpers.sol\";\n\ncontract Router {\n  mapping (string => address) controller;\n\n  constructor() public {\n  }\n\n  function addController(string _controllerName) public {\n    controller[_controllerName] = new Controller();\n  }\n\n  function removeController(string _controllerName) public {\n    controller[_controllerName] = address(0);\n  }\n\n  function checkController(string _controllerName) public view returns (address) {\n    return controller[_controllerName];\n  }\n\n  function callController(string _controller, address _object, string _method, string _params) public view returns (string) {\n    return Controller(controller[_controller]).callMethod(_object, _method, _params);\n  }\n\n}\n\ncontract Controller {\n  mapping (string => address) object;\n  // enum Actions { POST, GET, PUT, PATCH, DELETE }\n\n  constructor() public {\n    \n  }\n\n  function callMethod(address _object, string _method, string _params) public returns (string) {\n    if (keccak256(_method) == keccak256(\"POST\")) {\n      return Helpers.toAsciiString(new Method(_params));\n    }\n    else return Method(_object).objectAction(_method, _params);\n  }\n\n}\n\ncontract Method {\n  Obj public o;\n\n  constructor(string _params) public {\n    o = new Obj(_params);\n  }\n\n  function objectAction(string _method, string _params) public view returns (string) {\n    if(keccak256(_method) == keccak256(\"GET\")) {\n      return o.obj();\n    }\n    else if (keccak256(_method) == keccak256(\"PUT\")) {\n      return o.PUT(_params);\n    }\n    else if (keccak256(_method) == keccak256(\"DELETE\")) {\n      return o.DELETE();\n    }\n    else return \"Unknown method\";\n  }\n}\n\ncontract Obj {\n  string public obj;\n\n  constructor(string _params) public {\n    obj = _params;\n  }\n\n  function PUT(string _params) public returns (string) {\n    return obj = _params;\n  }\n\n  function DELETE() public returns (string) {\n    selfdestruct(msg.sender);\n    return \"Deleted\";\n  }\n\n}",
  "sourcePath": "/Users/guilhermecampos/eth-api/contracts/Router.sol",
  "compiler": {
    "name": "solc",
    "version": "0.4.24+commit.e67f0147.Emscripten.clang"
  },
  "schemaVersion": "2.0.0",
  "updatedAt": "2018-06-23T22:59:35.048Z"
}