{
  "contractName": "Controller",
  "abi": [
    {
      "inputs": [],
      "payable": false,
      "stateMutability": "nonpayable",
      "type": "constructor"
    },
    {
      "constant": false,
      "inputs": [
        {
          "name": "_methodName",
          "type": "string"
        },
        {
          "name": "_methodAddress",
          "type": "address"
        }
      ],
      "name": "addMethod",
      "outputs": [],
      "payable": false,
      "stateMutability": "nonpayable",
      "type": "function"
    },
    {
      "constant": false,
      "inputs": [
        {
          "name": "_methodName",
          "type": "string"
        }
      ],
      "name": "removeMethod",
      "outputs": [],
      "payable": false,
      "stateMutability": "nonpayable",
      "type": "function"
    },
    {
      "constant": true,
      "inputs": [
        {
          "name": "_methodName",
          "type": "string"
        }
      ],
      "name": "checkMethod",
      "outputs": [
        {
          "name": "",
          "type": "address"
        }
      ],
      "payable": false,
      "stateMutability": "view",
      "type": "function"
    },
    {
      "constant": false,
      "inputs": [
        {
          "name": "_method",
          "type": "string"
        },
        {
          "name": "_params",
          "type": "string"
        }
      ],
      "name": "callMethod",
      "outputs": [
        {
          "name": "",
          "type": "string"
        }
      ],
      "payable": false,
      "stateMutability": "nonpayable",
      "type": "function"
    }
  ],
  "bytecode": "0x608060405234801561001057600080fd5b5061064b806100206000396000f300608060405260043610610062576000357c0100000000000000000000000000000000000000000000000000000000900463ffffffff16806336a34779146100675780637f850f91146100a4578063b67d3f33146100cd578063f5f2c1e21461010a575b600080fd5b34801561007357600080fd5b5061008e6004803603610089919081019061042c565b610133565b60405161009b91906104f8565b60405180910390f35b3480156100b057600080fd5b506100cb60048036036100c691908101906103d8565b61013e565b005b3480156100d957600080fd5b506100f460048036036100ef9190810190610397565b6101ec565b60405161010191906104dd565b60405180910390f35b34801561011657600080fd5b50610131600480360361012c9190810190610397565b610280565b005b606081905092915050565b806000836040518082805190602001908083835b6020831015156101775780518252602082019150602081019050602083039250610152565b6001836020036101000a038019825116818451168082178552505050505050905001915050908152602001604051809103902060006101000a81548173ffffffffffffffffffffffffffffffffffffffff021916908373ffffffffffffffffffffffffffffffffffffffff1602179055505050565b600080826040518082805190602001908083835b6020831015156102255780518252602082019150602081019050602083039250610200565b6001836020036101000a038019825116818451168082178552505050505050905001915050908152602001604051809103902060009054906101000a900473ffffffffffffffffffffffffffffffffffffffff169050919050565b600080826040518082805190602001908083835b6020831015156102b95780518252602082019150602081019050602083039250610294565b6001836020036101000a038019825116818451168082178552505050505050905001915050908152602001604051809103902060006101000a81548173ffffffffffffffffffffffffffffffffffffffff021916908373ffffffffffffffffffffffffffffffffffffffff16021790555050565b6000610339823561059e565b905092915050565b600082601f830112151561035457600080fd5b813561036761036282610547565b61051a565b9150808252602083016020830185838301111561038357600080fd5b61038e8382846105be565b50505092915050565b6000602082840312156103a957600080fd5b600082013567ffffffffffffffff8111156103c357600080fd5b6103cf84828501610341565b91505092915050565b600080604083850312156103eb57600080fd5b600083013567ffffffffffffffff81111561040557600080fd5b61041185828601610341565b92505060206104228582860161032d565b9150509250929050565b6000806040838503121561043f57600080fd5b600083013567ffffffffffffffff81111561045957600080fd5b61046585828601610341565b925050602083013567ffffffffffffffff81111561048257600080fd5b61048e85828601610341565b9150509250929050565b6104a18161057e565b82525050565b60006104b282610573565b8084526104c68160208601602086016105cd565b6104cf81610600565b602085010191505092915050565b60006020820190506104f26000830184610498565b92915050565b6000602082019050818103600083015261051281846104a7565b905092915050565b6000604051905081810181811067ffffffffffffffff8211171561053d57600080fd5b8060405250919050565b600067ffffffffffffffff82111561055e57600080fd5b601f19601f8301169050602081019050919050565b600081519050919050565b600073ffffffffffffffffffffffffffffffffffffffff82169050919050565b600073ffffffffffffffffffffffffffffffffffffffff82169050919050565b82818337600083830152505050565b60005b838110156105eb5780820151818401526020810190506105d0565b838111156105fa576000848401525b50505050565b6000601f19601f83011690509190505600a265627a7a72305820f5776ef54fea036f0d9fc90bd6f11cb84881298e964c0e80389d2a1126ddb1fe6c6578706572696d656e74616cf50037",
  "source": "pragma experimental ABIEncoderV2;\n\ncontract Router {\n  mapping (string => address) controller;\n\n  constructor() public {\n  }\n\n  function addController(string _controllerName) public {\n    controller[_controllerName] = new Controller();\n  }\n\n  function removeController(string _controllerName) public {\n    controller[_controllerName] = address(0);\n  }\n\n  function checkController(string _controllerName) public view returns (address) {\n    return controller[_controllerName];\n  }\n\n  function callController(string _controller, string _method, string _params) public view returns (string) {\n    return Controller(controller[_controller]).callMethod(_method, _params);\n  }\n\n}\n\ncontract Controller {\n  mapping (string => address) method;\n\n  constructor() public {\n    \n  }\n\n  function addMethod(string _methodName, address _methodAddress) public {\n    method[_methodName] = _methodAddress;\n  }\n\n  function removeMethod(string _methodName) public {\n    method[_methodName] = address(0);\n  }\n\n  function checkMethod(string _methodName) public view returns (address) {\n    return method[_methodName];\n  }\n\n  function callMethod(string _method, string _params) public returns (string) {\n    return _params;\n  }\n  \n}\n\ncontract Method {\n\n  constructor() public {\n\n  }\n}\n\ncontract Object {\n  string public HelloWorld = \"\";\n\n\n}",
  "sourcePath": "/Users/guilhermecampos/eth-api/contracts/Router.sol",
  "compiler": {
    "name": "solc",
    "version": "0.4.24+commit.e67f0147.Emscripten.clang"
  },
  "schemaVersion": "2.0.0",
  "updatedAt": "2018-06-23T00:45:55.932Z"
}