{
  "contractName": "Controller",
  "abi": [
    {
      "constant": true,
      "inputs": [],
      "name": "objCount",
      "outputs": [
        {
          "name": "",
          "type": "int256"
        }
      ],
      "payable": false,
      "stateMutability": "view",
      "type": "function"
    },
    {
      "constant": true,
      "inputs": [
        {
          "name": "",
          "type": "uint256"
        }
      ],
      "name": "objects",
      "outputs": [
        {
          "name": "",
          "type": "address"
        }
      ],
      "payable": false,
      "stateMutability": "view",
      "type": "function"
    },
    {
      "inputs": [],
      "payable": false,
      "stateMutability": "nonpayable",
      "type": "constructor"
    },
    {
      "constant": false,
      "inputs": [
        {
          "name": "_params",
          "type": "string"
        }
      ],
      "name": "POST",
      "outputs": [],
      "payable": false,
      "stateMutability": "nonpayable",
      "type": "function"
    },
    {
      "constant": true,
      "inputs": [
        {
          "name": "_obj",
          "type": "address"
        }
      ],
      "name": "GET",
      "outputs": [
        {
          "name": "",
          "type": "string"
        }
      ],
      "payable": false,
      "stateMutability": "view",
      "type": "function"
    },
    {
      "constant": false,
      "inputs": [
        {
          "name": "_obj",
          "type": "address"
        },
        {
          "name": "_params",
          "type": "string"
        }
      ],
      "name": "PUT",
      "outputs": [],
      "payable": false,
      "stateMutability": "nonpayable",
      "type": "function"
    },
    {
      "constant": false,
      "inputs": [
        {
          "name": "_obj",
          "type": "address"
        }
      ],
      "name": "DELETE",
      "outputs": [],
      "payable": false,
      "stateMutability": "nonpayable",
      "type": "function"
    }
  ],
  "bytecode": "0x6080604052600060015534801561001557600080fd5b50610f3c806100256000396000f3006080604052600436106200007f576000357c0100000000000000000000000000000000000000000000000000000000900463ffffffff1680633e1aad14146200008457806356ce2ddd14620000b25780636c33fef614620000f657806383fd54691462000126578063e810d3041462000154578063ed1758501462000182575b600080fd5b3480156200009157600080fd5b50620000b06004803603620000aa9190810190620005b6565b620001c6565b005b348015620000bf57600080fd5b50620000de6004803603620000d891908101906200058a565b62000255565b604051620000ed91906200075e565b60405180910390f35b3480156200010357600080fd5b506200010e62000303565b6040516200011d919062000741565b60405180910390f35b3480156200013357600080fd5b506200015260048036036200014c919081019062000655565b62000309565b005b3480156200016157600080fd5b506200018060048036036200017a91908101906200058a565b620003be565b005b3480156200018f57600080fd5b50620001ae6004803603620001a891908101906200069a565b62000452565b604051620001bd919062000724565b60405180910390f35b8173ffffffffffffffffffffffffffffffffffffffff1663ffec3894826040518263ffffffff167c01000000000000000000000000000000000000000000000000000000000281526004016200021d91906200075e565b600060405180830381600087803b1580156200023857600080fd5b505af11580156200024d573d6000803e3d6000fd5b505050505050565b60608173ffffffffffffffffffffffffffffffffffffffff16632812988f6040518163ffffffff167c0100000000000000000000000000000000000000000000000000000000028152600401600060405180830381600087803b158015620002bc57600080fd5b505af1158015620002d1573d6000803e3d6000fd5b505050506040513d6000823e3d601f19601f82011682018060405250620002fc919081019062000610565b9050919050565b60015481565b6000816200031662000491565b6200032291906200075e565b604051809103906000f0801580156200033f573d6000803e3d6000fd5b50905060008190806001815401808255809150509060018203906000526020600020016000909192909190916101000a81548173ffffffffffffffffffffffffffffffffffffffff021916908373ffffffffffffffffffffffffffffffffffffffff160217905550506001600081548092919060010191905055505050565b8073ffffffffffffffffffffffffffffffffffffffff16639bc187496040518163ffffffff167c0100000000000000000000000000000000000000000000000000000000028152600401600060405180830381600087803b1580156200042357600080fd5b505af115801562000438573d6000803e3d6000fd5b505050506001600081548092919060019003919050555050565b6000818154811015156200046257fe5b906000526020600020016000915054906101000a900473ffffffffffffffffffffffffffffffffffffffff1681565b60405161064380620008c083390190565b6000620004b082356200083f565b905092915050565b600082601f8301121515620004cc57600080fd5b8151620004e3620004dd82620007b0565b62000782565b915080825260208301602083018583830111156200050057600080fd5b6200050d83828462000878565b50505092915050565b600082601f83011215156200052a57600080fd5b8135620005416200053b82620007dd565b62000782565b915080825260208301602083018583830111156200055e57600080fd5b6200056b83828462000869565b50505092915050565b60006200058282356200085f565b905092915050565b6000602082840312156200059d57600080fd5b6000620005ad84828501620004a2565b91505092915050565b60008060408385031215620005ca57600080fd5b6000620005da85828601620004a2565b925050602083013567ffffffffffffffff811115620005f857600080fd5b620006068582860162000516565b9150509250929050565b6000602082840312156200062357600080fd5b600082015167ffffffffffffffff8111156200063e57600080fd5b6200064c84828501620004b8565b91505092915050565b6000602082840312156200066857600080fd5b600082013567ffffffffffffffff8111156200068357600080fd5b620006918482850162000516565b91505092915050565b600060208284031215620006ad57600080fd5b6000620006bd8482850162000574565b91505092915050565b620006d18162000815565b82525050565b620006e28162000835565b82525050565b6000620006f5826200080a565b8084526200070b81602086016020860162000878565b6200071681620008ae565b602085010191505092915050565b60006020820190506200073b6000830184620006c6565b92915050565b6000602082019050620007586000830184620006d7565b92915050565b600060208201905081810360008301526200077a8184620006e8565b905092915050565b6000604051905081810181811067ffffffffffffffff82111715620007a657600080fd5b8060405250919050565b600067ffffffffffffffff821115620007c857600080fd5b601f19601f8301169050602081019050919050565b600067ffffffffffffffff821115620007f557600080fd5b601f19601f8301169050602081019050919050565b600081519050919050565b600073ffffffffffffffffffffffffffffffffffffffff82169050919050565b6000819050919050565b600073ffffffffffffffffffffffffffffffffffffffff82169050919050565b6000819050919050565b82818337600083830152505050565b60005b83811015620008985780820151818401526020810190506200087b565b83811115620008a8576000848401525b50505050565b6000601f19601f83011690509190505600608060405234801561001057600080fd5b506040516106433803806106438339810180604052610032919081019061014a565b806000908051906020019061004892919061004f565b5050610217565b828054600181600116156101000203166002900490600052602060002090601f016020900481019282601f1061009057805160ff19168380011785556100be565b828001600101855582156100be579182015b828111156100bd5782518255916020019190600101906100a2565b5b5090506100cb91906100cf565b5090565b6100f191905b808211156100ed5760008160009055506001016100d5565b5090565b90565b600082601f830112151561010757600080fd5b815161011a610115826101b8565b61018b565b9150808252602083016020830185838301111561013657600080fd5b6101418382846101e4565b50505092915050565b60006020828403121561015c57600080fd5b600082015167ffffffffffffffff81111561017657600080fd5b610182848285016100f4565b91505092915050565b6000604051905081810181811067ffffffffffffffff821117156101ae57600080fd5b8060405250919050565b600067ffffffffffffffff8211156101cf57600080fd5b601f19601f8301169050602081019050919050565b60005b838110156102025780820151818401526020810190506101e7565b83811115610211576000848401525b50505050565b61041d806102266000396000f300608060405260043610610057576000357c0100000000000000000000000000000000000000000000000000000000900463ffffffff1680632812988f1461005c5780639bc1874914610087578063ffec38941461009e575b600080fd5b34801561006857600080fd5b506100716100c7565b60405161007e919061030a565b60405180910390f35b34801561009357600080fd5b5061009c610165565b005b3480156100aa57600080fd5b506100c560048036036100c09190810190610293565b61017e565b005b60008054600181600116156101000203166002900480601f01602080910402602001604051908101604052809291908181526020018280546001816001161561010002031660029004801561015d5780601f106101325761010080835404028352916020019161015d565b820191906000526020600020905b81548152906001019060200180831161014057829003601f168201915b505050505081565b3373ffffffffffffffffffffffffffffffffffffffff16ff5b8060009080519060200190610194929190610198565b5050565b828054600181600116156101000203166002900490600052602060002090601f016020900481019282601f106101d957805160ff1916838001178555610207565b82800160010185558215610207579182015b828111156102065782518255916020019190600101906101eb565b5b5090506102149190610218565b5090565b61023a91905b8082111561023657600081600090555060010161021e565b5090565b90565b600082601f830112151561025057600080fd5b813561026361025e82610359565b61032c565b9150808252602083016020830185838301111561027f57600080fd5b61028a838284610390565b50505092915050565b6000602082840312156102a557600080fd5b600082013567ffffffffffffffff8111156102bf57600080fd5b6102cb8482850161023d565b91505092915050565b60006102df82610385565b8084526102f381602086016020860161039f565b6102fc816103d2565b602085010191505092915050565b6000602082019050818103600083015261032481846102d4565b905092915050565b6000604051905081810181811067ffffffffffffffff8211171561034f57600080fd5b8060405250919050565b600067ffffffffffffffff82111561037057600080fd5b601f19601f8301169050602081019050919050565b600081519050919050565b82818337600083830152505050565b60005b838110156103bd5780820151818401526020810190506103a2565b838111156103cc576000848401525b50505050565b6000601f19601f83011690509190505600a265627a7a72305820a28303c76c27e1ac43b28253ef3fe8a612e86f12f925a7d2bf2789eab730a7376c6578706572696d656e74616cf50037a265627a7a723058207e0b5b24e61a4df7fff62fbc6975ae6c3e5532c1a39098d10efbdf05d4c19f696c6578706572696d656e74616cf50037",
  "source": "pragma experimental ABIEncoderV2;\n\nimport \"./Object.sol\";\n\n// contract Router {\n//   mapping (string => address) controller;\n\n//   constructor() public {\n//   }\n\n//   function addController(string _controllerName) public {\n//     controller[_controllerName] = new Controller();\n//   }\n\n//   function removeController(string _controllerName) public {\n//     controller[_controllerName] = address(0);\n//   }\n\n//   function checkController(string _controllerName) public view returns (address) {\n//     return controller[_controllerName];\n//   }\n\n//   function callController(string _controller, address _object, string _method, string _params) public view returns (string) {\n//     return Controller(controller[_controller]).callMethod(_object, _method, _params);\n//   }\n\n// }\n\ncontract Controller {\n  address[] public objects;\n  int public objCount = 0;\n\n  constructor() public {\n    \n  }\n\n  function POST(string _params) public {\n    Object o = new Object(_params);\n    objects.push(o);\n    objCount++;\n  }\n\n  function GET(address _obj) public view returns (string) {\n    return Object(_obj).object();\n  }\n\n  function PUT(address _obj, string _params) public {\n    Object(_obj).PUT(_params);\n  }\n\n  function DELETE(address _obj) public {\n    Object(_obj).DELETE();\n    objCount--;\n  }\n\n}",
  "sourcePath": "/Users/guilhermecampos/eth-api/contracts/Controller.sol",
  "compiler": {
    "name": "solc",
    "version": "0.4.24+commit.e67f0147.Emscripten.clang"
  },
  "schemaVersion": "2.0.0",
  "updatedAt": "2018-06-24T15:31:51.465Z"
}