{
  "contractName": "Controller",
  "abi": [
    {
      "constant": true,
      "inputs": [],
      "name": "controllerName",
      "outputs": [
        {
          "name": "",
          "type": "string"
        }
      ],
      "payable": false,
      "stateMutability": "view",
      "type": "function"
    },
    {
      "constant": true,
      "inputs": [],
      "name": "objCount",
      "outputs": [
        {
          "name": "",
          "type": "int256"
        }
      ],
      "payable": false,
      "stateMutability": "view",
      "type": "function"
    },
    {
      "constant": true,
      "inputs": [
        {
          "name": "",
          "type": "uint256"
        }
      ],
      "name": "objects",
      "outputs": [
        {
          "name": "",
          "type": "address"
        }
      ],
      "payable": false,
      "stateMutability": "view",
      "type": "function"
    },
    {
      "inputs": [
        {
          "name": "_name",
          "type": "string"
        }
      ],
      "payable": false,
      "stateMutability": "nonpayable",
      "type": "constructor"
    },
    {
      "constant": false,
      "inputs": [
        {
          "name": "_params",
          "type": "string"
        }
      ],
      "name": "POST",
      "outputs": [],
      "payable": false,
      "stateMutability": "nonpayable",
      "type": "function"
    },
    {
      "constant": true,
      "inputs": [
        {
          "name": "_obj",
          "type": "address"
        }
      ],
      "name": "GET",
      "outputs": [
        {
          "name": "",
          "type": "string"
        }
      ],
      "payable": false,
      "stateMutability": "view",
      "type": "function"
    },
    {
      "constant": false,
      "inputs": [
        {
          "name": "_obj",
          "type": "address"
        },
        {
          "name": "_params",
          "type": "string"
        }
      ],
      "name": "PUT",
      "outputs": [],
      "payable": false,
      "stateMutability": "nonpayable",
      "type": "function"
    },
    {
      "constant": false,
      "inputs": [
        {
          "name": "_obj",
          "type": "address"
        }
      ],
      "name": "DELETE",
      "outputs": [],
      "payable": false,
      "stateMutability": "nonpayable",
      "type": "function"
    }
  ],
  "bytecode": "0x608060405260006001553480156200001657600080fd5b50604051620012d4380380620012d483398101806040526200003c919081019062000169565b8060029080519060200190620000549291906200005c565b50506200023f565b828054600181600116156101000203166002900490600052602060002090601f016020900481019282601f106200009f57805160ff1916838001178555620000d0565b82800160010185558215620000d0579182015b82811115620000cf578251825591602001919060010190620000b2565b5b509050620000df9190620000e3565b5090565b6200010891905b8082111562000104576000816000905550600101620000ea565b5090565b90565b600082601f83011215156200011f57600080fd5b8151620001366200013082620001dc565b620001ae565b915080825260208301602083018583830111156200015357600080fd5b6200016083828462000209565b50505092915050565b6000602082840312156200017c57600080fd5b600082015167ffffffffffffffff8111156200019757600080fd5b620001a5848285016200010b565b91505092915050565b6000604051905081810181811067ffffffffffffffff82111715620001d257600080fd5b8060405250919050565b600067ffffffffffffffff821115620001f457600080fd5b601f19601f8301169050602081019050919050565b60005b83811015620002295780820151818401526020810190506200020c565b8381111562000239576000848401525b50505050565b611085806200024f6000396000f3006080604052600436106200008b576000357c0100000000000000000000000000000000000000000000000000000000900463ffffffff16806328a3007614620000905780633e1aad1414620000c057806356ce2ddd14620000ee5780636c33fef6146200013257806383fd54691462000162578063e810d3041462000190578063ed17585014620001be575b600080fd5b3480156200009d57600080fd5b50620000a862000202565b604051620000b7919062000878565b60405180910390f35b348015620000cd57600080fd5b50620000ec6004803603620000e6919081019062000694565b620002a4565b005b348015620000fb57600080fd5b506200011a600480360362000114919081019062000668565b62000333565b6040516200012991906200089c565b60405180910390f35b3480156200013f57600080fd5b506200014a620003e1565b6040516200015991906200085b565b60405180910390f35b3480156200016f57600080fd5b506200018e600480360362000188919081019062000733565b620003e7565b005b3480156200019d57600080fd5b50620001bc6004803603620001b6919081019062000668565b6200049c565b005b348015620001cb57600080fd5b50620001ea6004803603620001e4919081019062000778565b62000530565b604051620001f991906200083e565b60405180910390f35b60028054600181600116156101000203166002900480601f0160208091040260200160405190810160405280929190818152602001828054600181600116156101000203166002900480156200029c5780601f1062000270576101008083540402835291602001916200029c565b820191906000526020600020905b8154815290600101906020018083116200027e57829003601f168201915b505050505081565b8173ffffffffffffffffffffffffffffffffffffffff1663ffec3894826040518263ffffffff167c0100000000000000000000000000000000000000000000000000000000028152600401620002fb91906200089c565b600060405180830381600087803b1580156200031657600080fd5b505af11580156200032b573d6000803e3d6000fd5b505050505050565b60608173ffffffffffffffffffffffffffffffffffffffff16632812988f6040518163ffffffff167c0100000000000000000000000000000000000000000000000000000000028152600401600060405180830381600087803b1580156200039a57600080fd5b505af1158015620003af573d6000803e3d6000fd5b505050506040513d6000823e3d601f19601f82011682018060405250620003da9190810190620006ee565b9050919050565b60015481565b600081620003f46200056f565b6200040091906200089c565b604051809103906000f0801580156200041d573d6000803e3d6000fd5b50905060008190806001815401808255809150509060018203906000526020600020016000909192909190916101000a81548173ffffffffffffffffffffffffffffffffffffffff021916908373ffffffffffffffffffffffffffffffffffffffff160217905550506001600081548092919060010191905055505050565b8073ffffffffffffffffffffffffffffffffffffffff16639bc187496040518163ffffffff167c0100000000000000000000000000000000000000000000000000000000028152600401600060405180830381600087803b1580156200050157600080fd5b505af115801562000516573d6000803e3d6000fd5b505050506001600081548092919060019003919050555050565b6000818154811015156200054057fe5b906000526020600020016000915054906101000a900473ffffffffffffffffffffffffffffffffffffffff1681565b6040516106438062000a0983390190565b60006200058e823562000988565b905092915050565b600082601f8301121515620005aa57600080fd5b8151620005c1620005bb82620008ee565b620008c0565b91508082526020830160208301858383011115620005de57600080fd5b620005eb838284620009c1565b50505092915050565b600082601f83011215156200060857600080fd5b81356200061f62000619826200091b565b620008c0565b915080825260208301602083018583830111156200063c57600080fd5b62000649838284620009b2565b50505092915050565b6000620006608235620009a8565b905092915050565b6000602082840312156200067b57600080fd5b60006200068b8482850162000580565b91505092915050565b60008060408385031215620006a857600080fd5b6000620006b88582860162000580565b925050602083013567ffffffffffffffff811115620006d657600080fd5b620006e485828601620005f4565b9150509250929050565b6000602082840312156200070157600080fd5b600082015167ffffffffffffffff8111156200071c57600080fd5b6200072a8482850162000596565b91505092915050565b6000602082840312156200074657600080fd5b600082013567ffffffffffffffff8111156200076157600080fd5b6200076f84828501620005f4565b91505092915050565b6000602082840312156200078b57600080fd5b60006200079b8482850162000652565b91505092915050565b620007af816200095e565b82525050565b620007c0816200097e565b82525050565b6000620007d38262000953565b808452620007e9816020860160208601620009c1565b620007f481620009f7565b602085010191505092915050565b60006200080f8262000948565b80845262000825816020860160208601620009c1565b6200083081620009f7565b602085010191505092915050565b6000602082019050620008556000830184620007a4565b92915050565b6000602082019050620008726000830184620007b5565b92915050565b6000602082019050818103600083015262000894818462000802565b905092915050565b60006020820190508181036000830152620008b88184620007c6565b905092915050565b6000604051905081810181811067ffffffffffffffff82111715620008e457600080fd5b8060405250919050565b600067ffffffffffffffff8211156200090657600080fd5b601f19601f8301169050602081019050919050565b600067ffffffffffffffff8211156200093357600080fd5b601f19601f8301169050602081019050919050565b600081519050919050565b600081519050919050565b600073ffffffffffffffffffffffffffffffffffffffff82169050919050565b6000819050919050565b600073ffffffffffffffffffffffffffffffffffffffff82169050919050565b6000819050919050565b82818337600083830152505050565b60005b83811015620009e1578082015181840152602081019050620009c4565b83811115620009f1576000848401525b50505050565b6000601f19601f83011690509190505600608060405234801561001057600080fd5b506040516106433803806106438339810180604052610032919081019061014a565b806000908051906020019061004892919061004f565b5050610217565b828054600181600116156101000203166002900490600052602060002090601f016020900481019282601f1061009057805160ff19168380011785556100be565b828001600101855582156100be579182015b828111156100bd5782518255916020019190600101906100a2565b5b5090506100cb91906100cf565b5090565b6100f191905b808211156100ed5760008160009055506001016100d5565b5090565b90565b600082601f830112151561010757600080fd5b815161011a610115826101b8565b61018b565b9150808252602083016020830185838301111561013657600080fd5b6101418382846101e4565b50505092915050565b60006020828403121561015c57600080fd5b600082015167ffffffffffffffff81111561017657600080fd5b610182848285016100f4565b91505092915050565b6000604051905081810181811067ffffffffffffffff821117156101ae57600080fd5b8060405250919050565b600067ffffffffffffffff8211156101cf57600080fd5b601f19601f8301169050602081019050919050565b60005b838110156102025780820151818401526020810190506101e7565b83811115610211576000848401525b50505050565b61041d806102266000396000f300608060405260043610610057576000357c0100000000000000000000000000000000000000000000000000000000900463ffffffff1680632812988f1461005c5780639bc1874914610087578063ffec38941461009e575b600080fd5b34801561006857600080fd5b506100716100c7565b60405161007e919061030a565b60405180910390f35b34801561009357600080fd5b5061009c610165565b005b3480156100aa57600080fd5b506100c560048036036100c09190810190610293565b61017e565b005b60008054600181600116156101000203166002900480601f01602080910402602001604051908101604052809291908181526020018280546001816001161561010002031660029004801561015d5780601f106101325761010080835404028352916020019161015d565b820191906000526020600020905b81548152906001019060200180831161014057829003601f168201915b505050505081565b3373ffffffffffffffffffffffffffffffffffffffff16ff5b8060009080519060200190610194929190610198565b5050565b828054600181600116156101000203166002900490600052602060002090601f016020900481019282601f106101d957805160ff1916838001178555610207565b82800160010185558215610207579182015b828111156102065782518255916020019190600101906101eb565b5b5090506102149190610218565b5090565b61023a91905b8082111561023657600081600090555060010161021e565b5090565b90565b600082601f830112151561025057600080fd5b813561026361025e82610359565b61032c565b9150808252602083016020830185838301111561027f57600080fd5b61028a838284610390565b50505092915050565b6000602082840312156102a557600080fd5b600082013567ffffffffffffffff8111156102bf57600080fd5b6102cb8482850161023d565b91505092915050565b60006102df82610385565b8084526102f381602086016020860161039f565b6102fc816103d2565b602085010191505092915050565b6000602082019050818103600083015261032481846102d4565b905092915050565b6000604051905081810181811067ffffffffffffffff8211171561034f57600080fd5b8060405250919050565b600067ffffffffffffffff82111561037057600080fd5b601f19601f8301169050602081019050919050565b600081519050919050565b82818337600083830152505050565b60005b838110156103bd5780820151818401526020810190506103a2565b838111156103cc576000848401525b50505050565b6000601f19601f83011690509190505600a265627a7a72305820a28303c76c27e1ac43b28253ef3fe8a612e86f12f925a7d2bf2789eab730a7376c6578706572696d656e74616cf50037a265627a7a723058205c1f8286c7a421f1daf71f2515d1ff86e6bd5bc313a99d5f4704db1d2bd4dedc6c6578706572696d656e74616cf50037",
  "source": "pragma experimental ABIEncoderV2;\n\nimport \"./Object.sol\";\n\ncontract Controller {\n  address[] public objects;\n  int public objCount = 0;\n  string public controllerName;\n\n  constructor(string _name) public {\n    controllerName = _name;\n  }\n\n  function POST(string _params) public {\n    Object o = new Object(_params);\n    objects.push(o);\n    objCount++;\n  }\n\n  function GET(address _obj) public view returns (string) {\n    return Object(_obj).object();\n  }\n\n  function PUT(address _obj, string _params) public {\n    Object(_obj).PUT(_params);\n  }\n\n  function DELETE(address _obj) public {\n    Object(_obj).DELETE();\n    objCount--;\n  }\n\n}",
  "sourcePath": "/Users/guilhermecampos/eth-api/contracts/Controller.sol",
  "compiler": {
    "name": "solc",
    "version": "0.4.24+commit.e67f0147.Emscripten.clang"
  },
  "schemaVersion": "2.0.0",
  "updatedAt": "2018-06-24T21:05:12.413Z"
}