{
  "contractName": "HelloWorldController",
  "abi": [
    {
      "constant": true,
      "inputs": [],
      "name": "owner",
      "outputs": [
        {
          "name": "",
          "type": "address"
        }
      ],
      "payable": false,
      "stateMutability": "view",
      "type": "function"
    },
    {
      "inputs": [],
      "payable": false,
      "stateMutability": "nonpayable",
      "type": "constructor"
    },
    {
      "constant": false,
      "inputs": [
        {
          "name": "_methodName",
          "type": "string"
        },
        {
          "name": "_methodAddress",
          "type": "address"
        }
      ],
      "name": "addMethod",
      "outputs": [],
      "payable": false,
      "stateMutability": "nonpayable",
      "type": "function"
    },
    {
      "constant": false,
      "inputs": [
        {
          "name": "_methodName",
          "type": "string"
        }
      ],
      "name": "removeMethod",
      "outputs": [],
      "payable": false,
      "stateMutability": "nonpayable",
      "type": "function"
    },
    {
      "constant": true,
      "inputs": [
        {
          "name": "_method",
          "type": "string"
        },
        {
          "name": "params",
          "type": "string[]"
        }
      ],
      "name": "callMethod",
      "outputs": [
        {
          "name": "",
          "type": "string"
        }
      ],
      "payable": false,
      "stateMutability": "view",
      "type": "function"
    }
  ],
  "bytecode": "0x608060405234801561001057600080fd5b50336000806101000a81548173ffffffffffffffffffffffffffffffffffffffff021916908373ffffffffffffffffffffffffffffffffffffffff1602179055506107cc806100606000396000f300608060405260043610610062576000357c0100000000000000000000000000000000000000000000000000000000900463ffffffff1680634d566aaf146100675780637f850f91146100a45780638da5cb5b146100cd578063f5f2c1e2146100f8575b600080fd5b34801561007357600080fd5b5061008e60048036036100899190810190610559565b610121565b60405161009b9190610625565b60405180910390f35b3480156100b057600080fd5b506100cb60048036036100c69190810190610505565b610161565b005b3480156100d957600080fd5b506100e2610265565b6040516100ef919061060a565b60405180910390f35b34801561010457600080fd5b5061011f600480360361011a91908101906104c4565b61028a565b005b60606040805190810160405280600881526020017f676f742068657265000000000000000000000000000000000000000000000000815250905092915050565b6000809054906101000a900473ffffffffffffffffffffffffffffffffffffffff1673ffffffffffffffffffffffffffffffffffffffff163373ffffffffffffffffffffffffffffffffffffffff16141561026157806001836040518082805190602001908083835b6020831015156101ef57805182526020820191506020810190506020830392506101ca565b6001836020036101000a038019825116818451168082178552505050505050905001915050908152602001604051809103902060006101000a81548173ffffffffffffffffffffffffffffffffffffffff021916908373ffffffffffffffffffffffffffffffffffffffff1602179055505b5050565b6000809054906101000a900473ffffffffffffffffffffffffffffffffffffffff1681565b6000809054906101000a900473ffffffffffffffffffffffffffffffffffffffff1673ffffffffffffffffffffffffffffffffffffffff163373ffffffffffffffffffffffffffffffffffffffff16141561038b5760006001826040518082805190602001908083835b60208310151561031957805182526020820191506020810190506020830392506102f4565b6001836020036101000a038019825116818451168082178552505050505050905001915050908152602001604051809103902060006101000a81548173ffffffffffffffffffffffffffffffffffffffff021916908373ffffffffffffffffffffffffffffffffffffffff1602179055505b50565b600061039a823561071f565b905092915050565b600082601f83011215156103b557600080fd5b81356103c86103c382610674565b610647565b9150818183526020840193506020810190508360005b8381101561040e57813586016103f48882610418565b8452602084019350602083019250506001810190506103de565b5050505092915050565b600082601f830112151561042b57600080fd5b813561043e6104398261069c565b610647565b9150808252602083016020830185838301111561045a57600080fd5b61046583828461073f565b50505092915050565b600082601f830112151561048157600080fd5b813561049461048f826106c8565b610647565b915080825260208301602083018583830111156104b057600080fd5b6104bb83828461073f565b50505092915050565b6000602082840312156104d657600080fd5b600082013567ffffffffffffffff8111156104f057600080fd5b6104fc8482850161046e565b91505092915050565b6000806040838503121561051857600080fd5b600083013567ffffffffffffffff81111561053257600080fd5b61053e8582860161046e565b925050602061054f8582860161038e565b9150509250929050565b6000806040838503121561056c57600080fd5b600083013567ffffffffffffffff81111561058657600080fd5b6105928582860161046e565b925050602083013567ffffffffffffffff8111156105af57600080fd5b6105bb858286016103a2565b9150509250929050565b6105ce816106ff565b82525050565b60006105df826106f4565b8084526105f381602086016020860161074e565b6105fc81610781565b602085010191505092915050565b600060208201905061061f60008301846105c5565b92915050565b6000602082019050818103600083015261063f81846105d4565b905092915050565b6000604051905081810181811067ffffffffffffffff8211171561066a57600080fd5b8060405250919050565b600067ffffffffffffffff82111561068b57600080fd5b602082029050602081019050919050565b600067ffffffffffffffff8211156106b357600080fd5b601f19601f8301169050602081019050919050565b600067ffffffffffffffff8211156106df57600080fd5b601f19601f8301169050602081019050919050565b600081519050919050565b600073ffffffffffffffffffffffffffffffffffffffff82169050919050565b600073ffffffffffffffffffffffffffffffffffffffff82169050919050565b82818337600083830152505050565b60005b8381101561076c578082015181840152602081019050610751565b8381111561077b576000848401525b50505050565b6000601f19601f83011690509190505600a265627a7a7230582030ae71b9d84b045538dd8a4097a0917fb715fee7d84e0fdde9f203a8ae0059a96c6578706572696d656e74616cf50037",
  "source": "pragma experimental ABIEncoderV2;\n\ncontract HelloWorldController {\n  address public owner;\n  mapping (string => address) method;\n\n  constructor() public {\n    owner = msg.sender;\n  }\n\n  modifier restricted() {\n    if (msg.sender == owner) _;\n  }\n\n  function addMethod(string _methodName, address _methodAddress) public restricted {\n    method[_methodName] = _methodAddress;\n  }\n\n  function removeMethod(string _methodName) public restricted {\n    method[_methodName] = address(0);\n  }\n\n  function callMethod(string _method, string[] params) public view returns (string) {\n    return \"got here\";\n  }\n\n}\n",
  "sourcePath": "/Users/guilhermecampos/eth-api/contracts/HelloWorldController.sol",
  "compiler": {
    "name": "solc",
    "version": "0.4.24+commit.e67f0147.Emscripten.clang"
  },
  "schemaVersion": "2.0.0",
  "updatedAt": "2018-06-17T10:30:09.906Z"
}