{
  "contractName": "HelloWorldController",
  "abi": [
    {
      "constant": true,
      "inputs": [],
      "name": "owner",
      "outputs": [
        {
          "name": "",
          "type": "address"
        }
      ],
      "payable": false,
      "stateMutability": "view",
      "type": "function"
    },
    {
      "inputs": [],
      "payable": false,
      "stateMutability": "nonpayable",
      "type": "constructor"
    },
    {
      "constant": false,
      "inputs": [
        {
          "name": "_methodName",
          "type": "string"
        },
        {
          "name": "_methodAddress",
          "type": "address"
        }
      ],
      "name": "addMethod",
      "outputs": [],
      "payable": false,
      "stateMutability": "nonpayable",
      "type": "function"
    },
    {
      "constant": false,
      "inputs": [
        {
          "name": "_methodName",
          "type": "string"
        }
      ],
      "name": "removeMethod",
      "outputs": [],
      "payable": false,
      "stateMutability": "nonpayable",
      "type": "function"
    },
    {
      "constant": true,
      "inputs": [
        {
          "name": "_methodName",
          "type": "string"
        }
      ],
      "name": "checkMethod",
      "outputs": [
        {
          "name": "",
          "type": "address"
        }
      ],
      "payable": false,
      "stateMutability": "view",
      "type": "function"
    },
    {
      "constant": true,
      "inputs": [
        {
          "name": "_method",
          "type": "string"
        },
        {
          "name": "_params",
          "type": "string"
        }
      ],
      "name": "callMethod",
      "outputs": [
        {
          "name": "",
          "type": "string"
        }
      ],
      "payable": false,
      "stateMutability": "view",
      "type": "function"
    }
  ],
  "bytecode": "0x608060405234801561001057600080fd5b506106dd806100206000396000f30060806040526004361061006d576000357c0100000000000000000000000000000000000000000000000000000000900463ffffffff16806336a34779146100725780637f850f91146100af5780638da5cb5b146100d8578063b67d3f3314610103578063f5f2c1e214610140575b600080fd5b34801561007e57600080fd5b50610099600480360361009491908101906104be565b610169565b6040516100a6919061058a565b60405180910390f35b3480156100bb57600080fd5b506100d660048036036100d1919081019061046a565b6101a9565b005b3480156100e457600080fd5b506100ed610257565b6040516100fa919061056f565b60405180910390f35b34801561010f57600080fd5b5061012a60048036036101259190810190610429565b61027c565b604051610137919061056f565b60405180910390f35b34801561014c57600080fd5b5061016760048036036101629190810190610429565b610311565b005b60606040805190810160405280600181526020017f6100000000000000000000000000000000000000000000000000000000000000815250905092915050565b806001836040518082805190602001908083835b6020831015156101e257805182526020820191506020810190506020830392506101bd565b6001836020036101000a038019825116818451168082178552505050505050905001915050908152602001604051809103902060006101000a81548173ffffffffffffffffffffffffffffffffffffffff021916908373ffffffffffffffffffffffffffffffffffffffff1602179055505050565b6000809054906101000a900473ffffffffffffffffffffffffffffffffffffffff1681565b60006001826040518082805190602001908083835b6020831015156102b65780518252602082019150602081019050602083039250610291565b6001836020036101000a038019825116818451168082178552505050505050905001915050908152602001604051809103902060009054906101000a900473ffffffffffffffffffffffffffffffffffffffff169050919050565b60006001826040518082805190602001908083835b60208310151561034b5780518252602082019150602081019050602083039250610326565b6001836020036101000a038019825116818451168082178552505050505050905001915050908152602001604051809103902060006101000a81548173ffffffffffffffffffffffffffffffffffffffff021916908373ffffffffffffffffffffffffffffffffffffffff16021790555050565b60006103cb8235610630565b905092915050565b600082601f83011215156103e657600080fd5b81356103f96103f4826105d9565b6105ac565b9150808252602083016020830185838301111561041557600080fd5b610420838284610650565b50505092915050565b60006020828403121561043b57600080fd5b600082013567ffffffffffffffff81111561045557600080fd5b610461848285016103d3565b91505092915050565b6000806040838503121561047d57600080fd5b600083013567ffffffffffffffff81111561049757600080fd5b6104a3858286016103d3565b92505060206104b4858286016103bf565b9150509250929050565b600080604083850312156104d157600080fd5b600083013567ffffffffffffffff8111156104eb57600080fd5b6104f7858286016103d3565b925050602083013567ffffffffffffffff81111561051457600080fd5b610520858286016103d3565b9150509250929050565b61053381610610565b82525050565b600061054482610605565b80845261055881602086016020860161065f565b61056181610692565b602085010191505092915050565b6000602082019050610584600083018461052a565b92915050565b600060208201905081810360008301526105a48184610539565b905092915050565b6000604051905081810181811067ffffffffffffffff821117156105cf57600080fd5b8060405250919050565b600067ffffffffffffffff8211156105f057600080fd5b601f19601f8301169050602081019050919050565b600081519050919050565b600073ffffffffffffffffffffffffffffffffffffffff82169050919050565b600073ffffffffffffffffffffffffffffffffffffffff82169050919050565b82818337600083830152505050565b60005b8381101561067d578082015181840152602081019050610662565b8381111561068c576000848401525b50505050565b6000601f19601f83011690509190505600a265627a7a72305820476cf6e0c967f1fddb2753bb0c824a246d64470fd4b5b7ef2b21d364e921362c6c6578706572696d656e74616cf50037",
  "source": "pragma experimental ABIEncoderV2;\n\ncontract HelloWorldController {\n  address public owner;\n  mapping (string => address) method;\n\n  constructor() public {\n  }\n\n  function addMethod(string _methodName, address _methodAddress) public {\n    method[_methodName] = _methodAddress;\n  }\n\n  function removeMethod(string _methodName) public {\n    method[_methodName] = address(0);\n  }\n\n  function checkMethod(string _methodName) public view returns(address) {\n    return method[_methodName];\n  }\n\n  function callMethod(string _method, string _params) public view returns (string) {\n    return \"a\";\n  }\n\n}\n",
  "sourcePath": "/Users/guilhermecampos/eth-api/contracts/HelloWorldController.sol",
  "compiler": {
    "name": "solc",
    "version": "0.4.24+commit.e67f0147.Emscripten.clang"
  },
  "schemaVersion": "2.0.0",
  "updatedAt": "2018-06-17T22:22:43.657Z"
}