{
  "contractName": "Helpers",
  "abi": [
    {
      "constant": true,
      "inputs": [
        {
          "name": "x",
          "type": "address"
        }
      ],
      "name": "toAsciiString",
      "outputs": [
        {
          "name": "",
          "type": "string"
        }
      ],
      "payable": false,
      "stateMutability": "view",
      "type": "function"
    }
  ],
  "bytecode": "0x6104d0610030600b82828239805160001a6073146000811461002057610022565bfe5b5030600052607381538281f3007300000000000000000000000000000000000000003014608060405260043610610058576000357c0100000000000000000000000000000000000000000000000000000000900463ffffffff1680632c6e75981461005d575b600080fd5b610077600480360361007291908101906103a6565b61008d565b6040516100849190610405565b60405180910390f35b60608060008060008060286040519080825280601f01601f1916602001820160405280156100ca5781602001602082028038833980820191505090505b509450600093505b6014841015610295578360130360080260020a8773ffffffffffffffffffffffffffffffffffffffff1681151561010557fe5b047f01000000000000000000000000000000000000000000000000000000000000000292506010837f0100000000000000000000000000000000000000000000000000000000000000900460ff1681151561015c57fe5b047f0100000000000000000000000000000000000000000000000000000000000000029150817f01000000000000000000000000000000000000000000000000000000000000009004601002837f01000000000000000000000000000000000000000000000000000000000000009004037f01000000000000000000000000000000000000000000000000000000000000000290506101fa826102a2565b858560020281518110151561020b57fe5b9060200101907effffffffffffffffffffffffffffffffffffffffffffffffffffffffffffff1916908160001a905350610244816102a2565b856001866002020181518110151561025857fe5b9060200101907effffffffffffffffffffffffffffffffffffffffffffffffffffffffffffff1916908160001a90535083806001019450506100d2565b8495505050505050919050565b6000600a7f010000000000000000000000000000000000000000000000000000000000000002827effffffffffffffffffffffffffffffffffffffffffffffffffffffffffffff19161015610341576030827f01000000000000000000000000000000000000000000000000000000000000009004017f010000000000000000000000000000000000000000000000000000000000000002905061038d565b6057827f01000000000000000000000000000000000000000000000000000000000000009004017f01000000000000000000000000000000000000000000000000000000000000000290505b919050565b600061039e8235610432565b905092915050565b6000602082840312156103b857600080fd5b60006103c684828501610392565b91505092915050565b60006103da82610427565b8084526103ee816020860160208601610452565b6103f781610485565b602085010191505092915050565b6000602082019050818103600083015261041f81846103cf565b905092915050565b600081519050919050565b600073ffffffffffffffffffffffffffffffffffffffff82169050919050565b60005b83811015610470578082015181840152602081019050610455565b8381111561047f576000848401525b50505050565b6000601f19601f83011690509190505600a265627a7a72305820ce18c60541080c57e14bf6501abbed289b658203d201d963dd60d087b8bd63086c6578706572696d656e74616cf50037",
  "source": "pragma experimental ABIEncoderV2;\n\nlibrary Helpers {\n  function toAsciiString(address x) public view returns (string) {\n    bytes memory s = new bytes(40);\n    for (uint i = 0; i < 20; i++) {\n      byte b = byte(uint8(uint(x) / (2**(8*(19 - i)))));\n      byte hi = byte(uint8(b) / 16);\n      byte lo = byte(uint8(b) - 16 * uint8(hi));\n      s[2*i] = char(hi);\n      s[2*i+1] = char(lo);            \n    }\n    return string(s);\n  }\n\n  function char(byte b) internal pure returns (byte c) {\n    if (b < 10) return byte(uint8(b) + 0x30);\n    else return byte(uint8(b) + 0x57);\n  }\n}",
  "sourcePath": "/Users/guilhermecampos/eth-api/contracts/Helpers.sol",
  "compiler": {
    "name": "solc",
    "version": "0.4.24+commit.e67f0147.Emscripten.clang"
  },
  "schemaVersion": "2.0.0",
  "updatedAt": "2018-06-24T17:43:06.393Z"
}