{
  "contractName": "Obj",
  "abi": [
    {
      "constant": true,
      "inputs": [],
      "name": "obj",
      "outputs": [
        {
          "name": "",
          "type": "string"
        }
      ],
      "payable": false,
      "stateMutability": "view",
      "type": "function"
    },
    {
      "inputs": [
        {
          "name": "_params",
          "type": "string"
        }
      ],
      "payable": false,
      "stateMutability": "nonpayable",
      "type": "constructor"
    },
    {
      "constant": false,
      "inputs": [
        {
          "name": "_params",
          "type": "string"
        }
      ],
      "name": "PUT",
      "outputs": [
        {
          "name": "",
          "type": "string"
        }
      ],
      "payable": false,
      "stateMutability": "nonpayable",
      "type": "function"
    },
    {
      "constant": false,
      "inputs": [],
      "name": "DELETE",
      "outputs": [
        {
          "name": "",
          "type": "string"
        }
      ],
      "payable": false,
      "stateMutability": "nonpayable",
      "type": "function"
    }
  ],
  "bytecode": "0x608060405234801561001057600080fd5b506040516107713803806107718339810180604052610032919081019061014a565b806000908051906020019061004892919061004f565b5050610217565b828054600181600116156101000203166002900490600052602060002090601f016020900481019282601f1061009057805160ff19168380011785556100be565b828001600101855582156100be579182015b828111156100bd5782518255916020019190600101906100a2565b5b5090506100cb91906100cf565b5090565b6100f191905b808211156100ed5760008160009055506001016100d5565b5090565b90565b600082601f830112151561010757600080fd5b815161011a610115826101b8565b61018b565b9150808252602083016020830185838301111561013657600080fd5b6101418382846101e4565b50505092915050565b60006020828403121561015c57600080fd5b600082015167ffffffffffffffff81111561017657600080fd5b610182848285016100f4565b91505092915050565b6000604051905081810181811067ffffffffffffffff821117156101ae57600080fd5b8060405250919050565b600067ffffffffffffffff8211156101cf57600080fd5b601f19601f8301169050602081019050919050565b60005b838110156102025780820151818401526020810190506101e7565b83811115610211576000848401525b50505050565b61054b806102266000396000f300608060405260043610610057576000357c0100000000000000000000000000000000000000000000000000000000900463ffffffff1680639bc187491461005c578063e31f2d6e14610087578063ffec3894146100b2575b600080fd5b34801561006857600080fd5b506100716100ef565b60405161007e919061042d565b60405180910390f35b34801561009357600080fd5b5061009c61010a565b6040516100a9919061040b565b60405180910390f35b3480156100be57600080fd5b506100d960048036036100d4919081019061035e565b6101a8565b6040516100e6919061042d565b60405180910390f35b60603373ffffffffffffffffffffffffffffffffffffffff16ff5b60008054600181600116156101000203166002900480601f0160208091040260200160405190810160405280929190818152602001828054600181600116156101000203166002900480156101a05780601f10610175576101008083540402835291602001916101a0565b820191906000526020600020905b81548152906001019060200180831161018357829003601f168201915b505050505081565b606081600090805190602001906101c0929190610263565b5060008054600181600116156101000203166002900480601f0160208091040260200160405190810160405280929190818152602001828054600181600116156101000203166002900480156102575780601f1061022c57610100808354040283529160200191610257565b820191906000526020600020905b81548152906001019060200180831161023a57829003601f168201915b50505050509050919050565b828054600181600116156101000203166002900490600052602060002090601f016020900481019282601f106102a457805160ff19168380011785556102d2565b828001600101855582156102d2579182015b828111156102d15782518255916020019190600101906102b6565b5b5090506102df91906102e3565b5090565b61030591905b808211156103015760008160009055506001016102e9565b5090565b90565b600082601f830112151561031b57600080fd5b813561032e6103298261047c565b61044f565b9150808252602083016020830185838301111561034a57600080fd5b6103558382846104be565b50505092915050565b60006020828403121561037057600080fd5b600082013567ffffffffffffffff81111561038a57600080fd5b61039684828501610308565b91505092915050565b60006103aa826104b3565b8084526103be8160208601602086016104cd565b6103c781610500565b602085010191505092915050565b60006103e0826104a8565b8084526103f48160208601602086016104cd565b6103fd81610500565b602085010191505092915050565b6000602082019050818103600083015261042581846103d5565b905092915050565b60006020820190508181036000830152610447818461039f565b905092915050565b6000604051905081810181811067ffffffffffffffff8211171561047257600080fd5b8060405250919050565b600067ffffffffffffffff82111561049357600080fd5b601f19601f8301169050602081019050919050565b600081519050919050565b600081519050919050565b82818337600083830152505050565b60005b838110156104eb5780820151818401526020810190506104d0565b838111156104fa576000848401525b50505050565b6000601f19601f83011690509190505600a265627a7a7230582037ef609c605eab3558685b0af793af2812f57e7c819bb4bed4105a4ce999b3306c6578706572696d656e74616cf50037",
  "source": "pragma experimental ABIEncoderV2;\n\nlibrary Helpers {\n  function toAsciiString(address x) public view returns (string) {\n    bytes memory s = new bytes(40);\n    for (uint i = 0; i < 20; i++) {\n      byte b = byte(uint8(uint(x) / (2**(8*(19 - i)))));\n      byte hi = byte(uint8(b) / 16);\n      byte lo = byte(uint8(b) - 16 * uint8(hi));\n      s[2*i] = char(hi);\n      s[2*i+1] = char(lo);            \n    }\n    return string(s);\n  }\n\n  function char(byte b) internal pure returns (byte c) {\n    if (b < 10) return byte(uint8(b) + 0x30);\n    else return byte(uint8(b) + 0x57);\n  }\n}\n\n// contract Router {\n//   mapping (string => address) controller;\n\n//   constructor() public {\n//   }\n\n//   function addController(string _controllerName) public {\n//     controller[_controllerName] = new Controller();\n//   }\n\n//   function removeController(string _controllerName) public {\n//     controller[_controllerName] = address(0);\n//   }\n\n//   function checkController(string _controllerName) public view returns (address) {\n//     return controller[_controllerName];\n//   }\n\n//   function callController(string _controller, address _object, string _method, string _params) public view returns (string) {\n//     return Controller(controller[_controller]).callMethod(_object, _method, _params);\n//   }\n\n// }\n\n// contract Controller {\n//   mapping (string => address) object;\n\n//   constructor() public {\n    \n//   }\n\n//   function callMethod(address _object, string _method, string _params) public returns (string) {\n//     if (keccak256(_method) == keccak256(\"POST\")) {\n//       Obj o = new Obj(_params);\n//       return Helpers.toAsciiString(o);\n//     }\n//     else if(keccak256(_method) == keccak256(\"GET\")) {\n//       return Obj(_object).obj();\n//     }\n//     else if (keccak256(_method) == keccak256(\"PUT\")) {\n//       return Obj(_object).PUT(_params);\n//     }\n//     else if (keccak256(_method) == keccak256(\"DELETE\")) {\n//       return Obj(_object).DELETE();\n//     }\n//     else return \"Unknown method\";\n//   }\n\n// }\n\ncontract Obj {\n  // GET Method\n  string public obj;\n\n  // POST Method\n  constructor(string _params) public {\n    obj = _params;\n  }\n\n  // PUT Method\n  function PUT(string _params) public returns (string) {\n    obj = _params;\n    return obj;\n  }\n\n  // DELETE Method\n  function DELETE() public returns (string) {\n    selfdestruct(msg.sender);\n    return \"Deleted\";\n  }\n\n}",
  "sourcePath": "/Users/guilhermecampos/eth-api/contracts/Router.sol",
  "compiler": {
    "name": "solc",
    "version": "0.4.24+commit.e67f0147.Emscripten.clang"
  },
  "schemaVersion": "2.0.0",
  "updatedAt": "2018-06-24T13:53:31.636Z"
}