{
  "contractName": "Object",
  "abi": [
    {
      "constant": true,
      "inputs": [],
      "name": "object",
      "outputs": [
        {
          "name": "",
          "type": "string"
        }
      ],
      "payable": false,
      "stateMutability": "view",
      "type": "function"
    },
    {
      "inputs": [
        {
          "name": "_params",
          "type": "string"
        }
      ],
      "payable": false,
      "stateMutability": "nonpayable",
      "type": "constructor"
    },
    {
      "constant": false,
      "inputs": [
        {
          "name": "_params",
          "type": "string"
        }
      ],
      "name": "PUT",
      "outputs": [],
      "payable": false,
      "stateMutability": "nonpayable",
      "type": "function"
    },
    {
      "constant": false,
      "inputs": [],
      "name": "DELETE",
      "outputs": [],
      "payable": false,
      "stateMutability": "nonpayable",
      "type": "function"
    }
  ],
  "bytecode": "0x608060405234801561001057600080fd5b506040516106433803806106438339810180604052610032919081019061014a565b806000908051906020019061004892919061004f565b5050610217565b828054600181600116156101000203166002900490600052602060002090601f016020900481019282601f1061009057805160ff19168380011785556100be565b828001600101855582156100be579182015b828111156100bd5782518255916020019190600101906100a2565b5b5090506100cb91906100cf565b5090565b6100f191905b808211156100ed5760008160009055506001016100d5565b5090565b90565b600082601f830112151561010757600080fd5b815161011a610115826101b8565b61018b565b9150808252602083016020830185838301111561013657600080fd5b6101418382846101e4565b50505092915050565b60006020828403121561015c57600080fd5b600082015167ffffffffffffffff81111561017657600080fd5b610182848285016100f4565b91505092915050565b6000604051905081810181811067ffffffffffffffff821117156101ae57600080fd5b8060405250919050565b600067ffffffffffffffff8211156101cf57600080fd5b601f19601f8301169050602081019050919050565b60005b838110156102025780820151818401526020810190506101e7565b83811115610211576000848401525b50505050565b61041d806102266000396000f300608060405260043610610057576000357c0100000000000000000000000000000000000000000000000000000000900463ffffffff1680632812988f1461005c5780639bc1874914610087578063ffec38941461009e575b600080fd5b34801561006857600080fd5b506100716100c7565b60405161007e919061030a565b60405180910390f35b34801561009357600080fd5b5061009c610165565b005b3480156100aa57600080fd5b506100c560048036036100c09190810190610293565b61017e565b005b60008054600181600116156101000203166002900480601f01602080910402602001604051908101604052809291908181526020018280546001816001161561010002031660029004801561015d5780601f106101325761010080835404028352916020019161015d565b820191906000526020600020905b81548152906001019060200180831161014057829003601f168201915b505050505081565b3373ffffffffffffffffffffffffffffffffffffffff16ff5b8060009080519060200190610194929190610198565b5050565b828054600181600116156101000203166002900490600052602060002090601f016020900481019282601f106101d957805160ff1916838001178555610207565b82800160010185558215610207579182015b828111156102065782518255916020019190600101906101eb565b5b5090506102149190610218565b5090565b61023a91905b8082111561023657600081600090555060010161021e565b5090565b90565b600082601f830112151561025057600080fd5b813561026361025e82610359565b61032c565b9150808252602083016020830185838301111561027f57600080fd5b61028a838284610390565b50505092915050565b6000602082840312156102a557600080fd5b600082013567ffffffffffffffff8111156102bf57600080fd5b6102cb8482850161023d565b91505092915050565b60006102df82610385565b8084526102f381602086016020860161039f565b6102fc816103d2565b602085010191505092915050565b6000602082019050818103600083015261032481846102d4565b905092915050565b6000604051905081810181811067ffffffffffffffff8211171561034f57600080fd5b8060405250919050565b600067ffffffffffffffff82111561037057600080fd5b601f19601f8301169050602081019050919050565b600081519050919050565b82818337600083830152505050565b60005b838110156103bd5780820151818401526020810190506103a2565b838111156103cc576000848401525b50505050565b6000601f19601f83011690509190505600a265627a7a72305820a28303c76c27e1ac43b28253ef3fe8a612e86f12f925a7d2bf2789eab730a7376c6578706572696d656e74616cf50037",
  "source": "pragma experimental ABIEncoderV2;\n\ncontract Object {\n  // GET Method\n  string public object;\n\n  // POST Method\n  constructor(string _params) public {\n    object = _params;\n  }\n\n  // PUT Method\n  function PUT(string _params) public {\n    object = _params;\n  }\n\n  // DELETE Method\n  function DELETE() public {\n    selfdestruct(msg.sender);\n  }\n\n}",
  "sourcePath": "/Users/guilhermecampos/eth-api/contracts/Object.sol",
  "compiler": {
    "name": "solc",
    "version": "0.4.24+commit.e67f0147.Emscripten.clang"
  },
  "schemaVersion": "2.0.0",
  "updatedAt": "2018-06-24T15:31:51.463Z"
}