{
  "contractName": "Object",
  "abi": [
    {
      "constant": true,
      "inputs": [],
      "name": "HelloWorld",
      "outputs": [
        {
          "name": "",
          "type": "string"
        }
      ],
      "payable": false,
      "stateMutability": "view",
      "type": "function"
    }
  ],
  "bytecode": "0x608060405260206040519081016040528060008152506000908051906020019061002a92919061003d565b5034801561003757600080fd5b506100e2565b828054600181600116156101000203166002900490600052602060002090601f016020900481019282601f1061007e57805160ff19168380011785556100ac565b828001600101855582156100ac579182015b828111156100ab578251825591602001919060010190610090565b5b5090506100b991906100bd565b5090565b6100df91905b808211156100db5760008160009055506001016100c3565b5090565b90565b6101f0806100f16000396000f300608060405260043610610041576000357c0100000000000000000000000000000000000000000000000000000000900463ffffffff1680637fffb7bd14610046575b600080fd5b34801561005257600080fd5b5061005b610071565b6040516100689190610145565b60405180910390f35b60008054600181600116156101000203166002900480601f0160208091040260200160405190810160405280929190818152602001828054600181600116156101000203166002900480156101075780601f106100dc57610100808354040283529160200191610107565b820191906000526020600020905b8154815290600101906020018083116100ea57829003601f168201915b505050505081565b600061011a82610167565b80845261012e816020860160208601610172565b610137816101a5565b602085010191505092915050565b6000602082019050818103600083015261015f818461010f565b905092915050565b600081519050919050565b60005b83811015610190578082015181840152602081019050610175565b8381111561019f576000848401525b50505050565b6000601f19601f83011690509190505600a265627a7a7230582019a8e9c25b0099513552369062a33408e947035014bb3e3a3e1f9042c4b08f476c6578706572696d656e74616cf50037",
  "source": "pragma experimental ABIEncoderV2;\n\ncontract Router {\n  mapping (string => address) controller;\n\n  constructor() public {\n  }\n\n  function addController(string _controllerName) public {\n    controller[_controllerName] = new Controller();\n  }\n\n  function removeController(string _controllerName) public {\n    controller[_controllerName] = address(0);\n  }\n\n  function checkController(string _controllerName) public view returns (address) {\n    return controller[_controllerName];\n  }\n\n  function callController(string _controller, string _method, string _params) public view returns (string) {\n    return Controller(controller[_controller]).callMethod(_method, _params);\n  }\n\n}\n\ncontract Controller {\n  mapping (string => address) method;\n\n  constructor() public {\n    \n  }\n\n  function addMethod(string _methodName, address _methodAddress) public {\n    method[_methodName] = _methodAddress;\n  }\n\n  function removeMethod(string _methodName) public {\n    method[_methodName] = address(0);\n  }\n\n  function checkMethod(string _methodName) public view returns (address) {\n    return method[_methodName];\n  }\n\n  function callMethod(string _method, string _params) public returns (string) {\n    return _params;\n  }\n  \n}\n\ncontract Method {\n\n  constructor() public {\n\n  }\n}\n\ncontract Object {\n  string public HelloWorld = \"\";\n\n\n}",
  "sourcePath": "/Users/guilhermecampos/eth-api/contracts/Router.sol",
  "compiler": {
    "name": "solc",
    "version": "0.4.24+commit.e67f0147.Emscripten.clang"
  },
  "schemaVersion": "2.0.0",
  "updatedAt": "2018-06-23T00:45:55.933Z"
}