{
  "contractName": "Router",
  "abi": [
    {
      "constant": true,
      "inputs": [],
      "name": "controllersCount",
      "outputs": [
        {
          "name": "",
          "type": "int256"
        }
      ],
      "payable": false,
      "stateMutability": "view",
      "type": "function"
    },
    {
      "constant": true,
      "inputs": [
        {
          "name": "",
          "type": "uint256"
        }
      ],
      "name": "controllers",
      "outputs": [
        {
          "name": "",
          "type": "string"
        }
      ],
      "payable": false,
      "stateMutability": "view",
      "type": "function"
    },
    {
      "inputs": [],
      "payable": false,
      "stateMutability": "nonpayable",
      "type": "constructor"
    },
    {
      "constant": false,
      "inputs": [
        {
          "name": "_controllerName",
          "type": "string"
        }
      ],
      "name": "addController",
      "outputs": [],
      "payable": false,
      "stateMutability": "nonpayable",
      "type": "function"
    },
    {
      "constant": false,
      "inputs": [
        {
          "name": "_controllerName",
          "type": "string"
        }
      ],
      "name": "removeController",
      "outputs": [],
      "payable": false,
      "stateMutability": "nonpayable",
      "type": "function"
    },
    {
      "constant": true,
      "inputs": [
        {
          "name": "_controllerName",
          "type": "string"
        }
      ],
      "name": "getController",
      "outputs": [
        {
          "name": "",
          "type": "address"
        }
      ],
      "payable": false,
      "stateMutability": "view",
      "type": "function"
    },
    {
      "constant": true,
      "inputs": [
        {
          "name": "_controller",
          "type": "string"
        }
      ],
      "name": "getNumberOfObjects",
      "outputs": [
        {
          "name": "",
          "type": "int256"
        }
      ],
      "payable": false,
      "stateMutability": "view",
      "type": "function"
    },
    {
      "constant": true,
      "inputs": [
        {
          "name": "_controller",
          "type": "string"
        },
        {
          "name": "_objNumber",
          "type": "uint256"
        }
      ],
      "name": "getObject",
      "outputs": [
        {
          "name": "",
          "type": "address"
        }
      ],
      "payable": false,
      "stateMutability": "view",
      "type": "function"
    },
    {
      "constant": false,
      "inputs": [
        {
          "name": "_controller",
          "type": "string"
        },
        {
          "name": "_params",
          "type": "string"
        }
      ],
      "name": "POST",
      "outputs": [],
      "payable": false,
      "stateMutability": "nonpayable",
      "type": "function"
    },
    {
      "constant": true,
      "inputs": [
        {
          "name": "_controller",
          "type": "string"
        },
        {
          "name": "_obj",
          "type": "address"
        }
      ],
      "name": "GET",
      "outputs": [
        {
          "name": "",
          "type": "string"
        }
      ],
      "payable": false,
      "stateMutability": "view",
      "type": "function"
    },
    {
      "constant": false,
      "inputs": [
        {
          "name": "_controller",
          "type": "string"
        },
        {
          "name": "_obj",
          "type": "address"
        },
        {
          "name": "_params",
          "type": "string"
        }
      ],
      "name": "PUT",
      "outputs": [],
      "payable": false,
      "stateMutability": "nonpayable",
      "type": "function"
    },
    {
      "constant": false,
      "inputs": [
        {
          "name": "_controller",
          "type": "string"
        },
        {
          "name": "_obj",
          "type": "address"
        }
      ],
      "name": "DELETE",
      "outputs": [],
      "payable": false,
      "stateMutability": "nonpayable",
      "type": "function"
    }
  ],
  "bytecode": "0x608060405234801561001057600080fd5b506127e1806100206000396000f300608060405260043610620000ba576000357c0100000000000000000000000000000000000000000000000000000000900463ffffffff16806217e08614620000bf5780633621f4e714620000ed578063542311f6146200011b57806363a271111462000149578063774054d7146200018d5780638388727e14620001d157806399fd1c3214620001ff578063b4fd1372146200022f578063c938deb91462000273578063e94b0dd214620002a1578063f78e820014620002e5575b600080fd5b348015620000cc57600080fd5b50620000eb6004803603620000e5919081019062000fc1565b62000329565b005b348015620000fa57600080fd5b5062000119600480360362000113919081019062000fc1565b620003eb565b005b3480156200012857600080fd5b50620001476004803603620001419190810190620010a5565b62000521565b005b3480156200015657600080fd5b506200017560048036036200016f919081019062000fc1565b62000640565b604051620001849190620012d1565b60405180910390f35b3480156200019a57600080fd5b50620001b96004803603620001b391908101906200104b565b620006d6565b604051620001c8919062001363565b60405180910390f35b348015620001de57600080fd5b50620001fd6004803603620001f791908101906200104b565b6200081f565b005b3480156200020c57600080fd5b50620002176200093b565b60405162000226919062001322565b60405180910390f35b3480156200023c57600080fd5b506200025b600480360362000255919081019062000fc1565b62000941565b6040516200026a919062001322565b60405180910390f35b3480156200028057600080fd5b506200029f60048036036200029991908101906200112d565b62000a76565b005b348015620002ae57600080fd5b50620002cd6004803603620002c79190810190620011fa565b62000b92565b604051620002dc91906200133f565b60405180910390f35b348015620002f257600080fd5b506200031160048036036200030b9190810190620011a0565b62000c52565b604051620003209190620012d1565b60405180910390f35b600080826040518082805190602001908083835b6020831015156200036457805182526020820191506020810190506020830392506200033d565b6001836020036101000a038019825116818451168082178552505050505050905001915050908152602001604051809103902060006101000a81548173ffffffffffffffffffffffffffffffffffffffff021916908373ffffffffffffffffffffffffffffffffffffffff1602179055506002600081548092919060019003919050555050565b80620003f662000d95565b62000402919062001363565b604051809103906000f0801580156200041f573d6000803e3d6000fd5b506000826040518082805190602001908083835b6020831015156200045a578051825260208201915060208101905060208303925062000433565b6001836020036101000a038019825116818451168082178552505050505050905001915050908152602001604051809103902060006101000a81548173ffffffffffffffffffffffffffffffffffffffff021916908373ffffffffffffffffffffffffffffffffffffffff16021790555060018190806001815401808255809150509060018203906000526020600020016000909192909190915090805190602001906200050a92919062000da6565b505060026000815480929190600101919050555050565b6000836040518082805190602001908083835b6020831015156200055b578051825260208201915060208101905060208303925062000534565b6001836020036101000a038019825116818451168082178552505050505050905001915050908152602001604051809103902060009054906101000a900473ffffffffffffffffffffffffffffffffffffffff1673ffffffffffffffffffffffffffffffffffffffff16633e1aad1483836040518363ffffffff167c010000000000000000000000000000000000000000000000000000000002815260040162000607929190620012ee565b600060405180830381600087803b1580156200062257600080fd5b505af115801562000637573d6000803e3d6000fd5b50505050505050565b600080826040518082805190602001908083835b6020831015156200067b578051825260208201915060208101905060208303925062000654565b6001836020036101000a038019825116818451168082178552505050505050905001915050908152602001604051809103902060009054906101000a900473ffffffffffffffffffffffffffffffffffffffff169050919050565b60606000836040518082805190602001908083835b602083101515620007125780518252602082019150602081019050602083039250620006eb565b6001836020036101000a038019825116818451168082178552505050505050905001915050908152602001604051809103902060009054906101000a900473ffffffffffffffffffffffffffffffffffffffff1673ffffffffffffffffffffffffffffffffffffffff166356ce2ddd836040518263ffffffff167c0100000000000000000000000000000000000000000000000000000000028152600401620007bc9190620012d1565b600060405180830381600087803b158015620007d757600080fd5b505af1158015620007ec573d6000803e3d6000fd5b505050506040513d6000823e3d601f19601f8201168201806040525062000817919081019062001006565b905092915050565b6000826040518082805190602001908083835b60208310151562000859578051825260208201915060208101905060208303925062000832565b6001836020036101000a038019825116818451168082178552505050505050905001915050908152602001604051809103902060009054906101000a900473ffffffffffffffffffffffffffffffffffffffff1673ffffffffffffffffffffffffffffffffffffffff1663e810d304826040518263ffffffff167c0100000000000000000000000000000000000000000000000000000000028152600401620009039190620012d1565b600060405180830381600087803b1580156200091e57600080fd5b505af115801562000933573d6000803e3d6000fd5b505050505050565b60025481565b600080826040518082805190602001908083835b6020831015156200097c578051825260208201915060208101905060208303925062000955565b6001836020036101000a038019825116818451168082178552505050505050905001915050908152602001604051809103902060009054906101000a900473ffffffffffffffffffffffffffffffffffffffff1673ffffffffffffffffffffffffffffffffffffffff16636c33fef66040518163ffffffff167c0100000000000000000000000000000000000000000000000000000000028152600401602060405180830381600087803b15801562000a3457600080fd5b505af115801562000a49573d6000803e3d6000fd5b505050506040513d601f19601f8201168201806040525062000a6f919081019062000f95565b9050919050565b6000826040518082805190602001908083835b60208310151562000ab0578051825260208201915060208101905060208303925062000a89565b6001836020036101000a038019825116818451168082178552505050505050905001915050908152602001604051809103902060009054906101000a900473ffffffffffffffffffffffffffffffffffffffff1673ffffffffffffffffffffffffffffffffffffffff166383fd5469826040518263ffffffff167c010000000000000000000000000000000000000000000000000000000002815260040162000b5a919062001363565b600060405180830381600087803b15801562000b7557600080fd5b505af115801562000b8a573d6000803e3d6000fd5b505050505050565b60018181548110151562000ba257fe5b906000526020600020016000915090508054600181600116156101000203166002900480601f01602080910402602001604051908101604052809291908181526020018280546001816001161561010002031660029004801562000c4a5780601f1062000c1e5761010080835404028352916020019162000c4a565b820191906000526020600020905b81548152906001019060200180831162000c2c57829003601f168201915b505050505081565b600080836040518082805190602001908083835b60208310151562000c8d578051825260208201915060208101905060208303925062000c66565b6001836020036101000a038019825116818451168082178552505050505050905001915050908152602001604051809103902060009054906101000a900473ffffffffffffffffffffffffffffffffffffffff1673ffffffffffffffffffffffffffffffffffffffff1663ed175850836040518263ffffffff167c010000000000000000000000000000000000000000000000000000000002815260040162000d37919062001387565b602060405180830381600087803b15801562000d5257600080fd5b505af115801562000d67573d6000803e3d6000fd5b505050506040513d601f19601f8201168201806040525062000d8d919081019062000f69565b905092915050565b6040516112d480620014d483390190565b828054600181600116156101000203166002900490600052602060002090601f016020900481019282601f1062000de957805160ff191683800117855562000e1a565b8280016001018555821562000e1a579182015b8281111562000e1957825182559160200191906001019062000dfc565b5b50905062000e29919062000e2d565b5090565b62000e5291905b8082111562000e4e57600081600090555060010162000e34565b5090565b90565b600062000e63823562001449565b905092915050565b600062000e79825162001449565b905092915050565b600062000e8f825162001469565b905092915050565b600082601f830112151562000eab57600080fd5b813562000ec262000ebc82620013d2565b620013a4565b9150808252602083016020830185838301111562000edf57600080fd5b62000eec8382846200147d565b50505092915050565b600082601f830112151562000f0957600080fd5b815162000f2062000f1a82620013d2565b620013a4565b9150808252602083016020830185838301111562000f3d57600080fd5b62000f4a8382846200148c565b50505092915050565b600062000f61823562001473565b905092915050565b60006020828403121562000f7c57600080fd5b600062000f8c8482850162000e6b565b91505092915050565b60006020828403121562000fa857600080fd5b600062000fb88482850162000e81565b91505092915050565b60006020828403121562000fd457600080fd5b600082013567ffffffffffffffff81111562000fef57600080fd5b62000ffd8482850162000e97565b91505092915050565b6000602082840312156200101957600080fd5b600082015167ffffffffffffffff8111156200103457600080fd5b620010428482850162000ef5565b91505092915050565b600080604083850312156200105f57600080fd5b600083013567ffffffffffffffff8111156200107a57600080fd5b620010888582860162000e97565b92505060206200109b8582860162000e55565b9150509250929050565b600080600060608486031215620010bb57600080fd5b600084013567ffffffffffffffff811115620010d657600080fd5b620010e48682870162000e97565b9350506020620010f78682870162000e55565b925050604084013567ffffffffffffffff8111156200111557600080fd5b620011238682870162000e97565b9150509250925092565b600080604083850312156200114157600080fd5b600083013567ffffffffffffffff8111156200115c57600080fd5b6200116a8582860162000e97565b925050602083013567ffffffffffffffff8111156200118857600080fd5b620011968582860162000e97565b9150509250929050565b60008060408385031215620011b457600080fd5b600083013567ffffffffffffffff811115620011cf57600080fd5b620011dd8582860162000e97565b9250506020620011f08582860162000f53565b9150509250929050565b6000602082840312156200120d57600080fd5b60006200121d8482850162000f53565b91505092915050565b620012318162001415565b82525050565b620012428162001435565b82525050565b600062001255826200140a565b8084526200126b8160208601602086016200148c565b6200127681620014c2565b602085010191505092915050565b60006200129182620013ff565b808452620012a78160208601602086016200148c565b620012b281620014c2565b602085010191505092915050565b620012cb816200143f565b82525050565b6000602082019050620012e8600083018462001226565b92915050565b600060408201905062001305600083018562001226565b818103602083015262001319818462001248565b90509392505050565b600060208201905062001339600083018462001237565b92915050565b600060208201905081810360008301526200135b818462001284565b905092915050565b600060208201905081810360008301526200137f818462001248565b905092915050565b60006020820190506200139e6000830184620012c0565b92915050565b6000604051905081810181811067ffffffffffffffff82111715620013c857600080fd5b8060405250919050565b600067ffffffffffffffff821115620013ea57600080fd5b601f19601f8301169050602081019050919050565b600081519050919050565b600081519050919050565b600073ffffffffffffffffffffffffffffffffffffffff82169050919050565b6000819050919050565b6000819050919050565b600073ffffffffffffffffffffffffffffffffffffffff82169050919050565b6000819050919050565b6000819050919050565b82818337600083830152505050565b60005b83811015620014ac5780820151818401526020810190506200148f565b83811115620014bc576000848401525b50505050565b6000601f19601f83011690509190505600608060405260006001553480156200001657600080fd5b50604051620012d4380380620012d483398101806040526200003c919081019062000169565b8060029080519060200190620000549291906200005c565b50506200023f565b828054600181600116156101000203166002900490600052602060002090601f016020900481019282601f106200009f57805160ff1916838001178555620000d0565b82800160010185558215620000d0579182015b82811115620000cf578251825591602001919060010190620000b2565b5b509050620000df9190620000e3565b5090565b6200010891905b8082111562000104576000816000905550600101620000ea565b5090565b90565b600082601f83011215156200011f57600080fd5b8151620001366200013082620001dc565b620001ae565b915080825260208301602083018583830111156200015357600080fd5b6200016083828462000209565b50505092915050565b6000602082840312156200017c57600080fd5b600082015167ffffffffffffffff8111156200019757600080fd5b620001a5848285016200010b565b91505092915050565b6000604051905081810181811067ffffffffffffffff82111715620001d257600080fd5b8060405250919050565b600067ffffffffffffffff821115620001f457600080fd5b601f19601f8301169050602081019050919050565b60005b83811015620002295780820151818401526020810190506200020c565b8381111562000239576000848401525b50505050565b611085806200024f6000396000f3006080604052600436106200008b576000357c0100000000000000000000000000000000000000000000000000000000900463ffffffff16806328a3007614620000905780633e1aad1414620000c057806356ce2ddd14620000ee5780636c33fef6146200013257806383fd54691462000162578063e810d3041462000190578063ed17585014620001be575b600080fd5b3480156200009d57600080fd5b50620000a862000202565b604051620000b7919062000878565b60405180910390f35b348015620000cd57600080fd5b50620000ec6004803603620000e6919081019062000694565b620002a4565b005b348015620000fb57600080fd5b506200011a600480360362000114919081019062000668565b62000333565b6040516200012991906200089c565b60405180910390f35b3480156200013f57600080fd5b506200014a620003e1565b6040516200015991906200085b565b60405180910390f35b3480156200016f57600080fd5b506200018e600480360362000188919081019062000733565b620003e7565b005b3480156200019d57600080fd5b50620001bc6004803603620001b6919081019062000668565b6200049c565b005b348015620001cb57600080fd5b50620001ea6004803603620001e4919081019062000778565b62000530565b604051620001f991906200083e565b60405180910390f35b60028054600181600116156101000203166002900480601f0160208091040260200160405190810160405280929190818152602001828054600181600116156101000203166002900480156200029c5780601f1062000270576101008083540402835291602001916200029c565b820191906000526020600020905b8154815290600101906020018083116200027e57829003601f168201915b505050505081565b8173ffffffffffffffffffffffffffffffffffffffff1663ffec3894826040518263ffffffff167c0100000000000000000000000000000000000000000000000000000000028152600401620002fb91906200089c565b600060405180830381600087803b1580156200031657600080fd5b505af11580156200032b573d6000803e3d6000fd5b505050505050565b60608173ffffffffffffffffffffffffffffffffffffffff16632812988f6040518163ffffffff167c0100000000000000000000000000000000000000000000000000000000028152600401600060405180830381600087803b1580156200039a57600080fd5b505af1158015620003af573d6000803e3d6000fd5b505050506040513d6000823e3d601f19601f82011682018060405250620003da9190810190620006ee565b9050919050565b60015481565b600081620003f46200056f565b6200040091906200089c565b604051809103906000f0801580156200041d573d6000803e3d6000fd5b50905060008190806001815401808255809150509060018203906000526020600020016000909192909190916101000a81548173ffffffffffffffffffffffffffffffffffffffff021916908373ffffffffffffffffffffffffffffffffffffffff160217905550506001600081548092919060010191905055505050565b8073ffffffffffffffffffffffffffffffffffffffff16639bc187496040518163ffffffff167c0100000000000000000000000000000000000000000000000000000000028152600401600060405180830381600087803b1580156200050157600080fd5b505af115801562000516573d6000803e3d6000fd5b505050506001600081548092919060019003919050555050565b6000818154811015156200054057fe5b906000526020600020016000915054906101000a900473ffffffffffffffffffffffffffffffffffffffff1681565b6040516106438062000a0983390190565b60006200058e823562000988565b905092915050565b600082601f8301121515620005aa57600080fd5b8151620005c1620005bb82620008ee565b620008c0565b91508082526020830160208301858383011115620005de57600080fd5b620005eb838284620009c1565b50505092915050565b600082601f83011215156200060857600080fd5b81356200061f62000619826200091b565b620008c0565b915080825260208301602083018583830111156200063c57600080fd5b62000649838284620009b2565b50505092915050565b6000620006608235620009a8565b905092915050565b6000602082840312156200067b57600080fd5b60006200068b8482850162000580565b91505092915050565b60008060408385031215620006a857600080fd5b6000620006b88582860162000580565b925050602083013567ffffffffffffffff811115620006d657600080fd5b620006e485828601620005f4565b9150509250929050565b6000602082840312156200070157600080fd5b600082015167ffffffffffffffff8111156200071c57600080fd5b6200072a8482850162000596565b91505092915050565b6000602082840312156200074657600080fd5b600082013567ffffffffffffffff8111156200076157600080fd5b6200076f84828501620005f4565b91505092915050565b6000602082840312156200078b57600080fd5b60006200079b8482850162000652565b91505092915050565b620007af816200095e565b82525050565b620007c0816200097e565b82525050565b6000620007d38262000953565b808452620007e9816020860160208601620009c1565b620007f481620009f7565b602085010191505092915050565b60006200080f8262000948565b80845262000825816020860160208601620009c1565b6200083081620009f7565b602085010191505092915050565b6000602082019050620008556000830184620007a4565b92915050565b6000602082019050620008726000830184620007b5565b92915050565b6000602082019050818103600083015262000894818462000802565b905092915050565b60006020820190508181036000830152620008b88184620007c6565b905092915050565b6000604051905081810181811067ffffffffffffffff82111715620008e457600080fd5b8060405250919050565b600067ffffffffffffffff8211156200090657600080fd5b601f19601f8301169050602081019050919050565b600067ffffffffffffffff8211156200093357600080fd5b601f19601f8301169050602081019050919050565b600081519050919050565b600081519050919050565b600073ffffffffffffffffffffffffffffffffffffffff82169050919050565b6000819050919050565b600073ffffffffffffffffffffffffffffffffffffffff82169050919050565b6000819050919050565b82818337600083830152505050565b60005b83811015620009e1578082015181840152602081019050620009c4565b83811115620009f1576000848401525b50505050565b6000601f19601f83011690509190505600608060405234801561001057600080fd5b506040516106433803806106438339810180604052610032919081019061014a565b806000908051906020019061004892919061004f565b5050610217565b828054600181600116156101000203166002900490600052602060002090601f016020900481019282601f1061009057805160ff19168380011785556100be565b828001600101855582156100be579182015b828111156100bd5782518255916020019190600101906100a2565b5b5090506100cb91906100cf565b5090565b6100f191905b808211156100ed5760008160009055506001016100d5565b5090565b90565b600082601f830112151561010757600080fd5b815161011a610115826101b8565b61018b565b9150808252602083016020830185838301111561013657600080fd5b6101418382846101e4565b50505092915050565b60006020828403121561015c57600080fd5b600082015167ffffffffffffffff81111561017657600080fd5b610182848285016100f4565b91505092915050565b6000604051905081810181811067ffffffffffffffff821117156101ae57600080fd5b8060405250919050565b600067ffffffffffffffff8211156101cf57600080fd5b601f19601f8301169050602081019050919050565b60005b838110156102025780820151818401526020810190506101e7565b83811115610211576000848401525b50505050565b61041d806102266000396000f300608060405260043610610057576000357c0100000000000000000000000000000000000000000000000000000000900463ffffffff1680632812988f1461005c5780639bc1874914610087578063ffec38941461009e575b600080fd5b34801561006857600080fd5b506100716100c7565b60405161007e919061030a565b60405180910390f35b34801561009357600080fd5b5061009c610165565b005b3480156100aa57600080fd5b506100c560048036036100c09190810190610293565b61017e565b005b60008054600181600116156101000203166002900480601f01602080910402602001604051908101604052809291908181526020018280546001816001161561010002031660029004801561015d5780601f106101325761010080835404028352916020019161015d565b820191906000526020600020905b81548152906001019060200180831161014057829003601f168201915b505050505081565b3373ffffffffffffffffffffffffffffffffffffffff16ff5b8060009080519060200190610194929190610198565b5050565b828054600181600116156101000203166002900490600052602060002090601f016020900481019282601f106101d957805160ff1916838001178555610207565b82800160010185558215610207579182015b828111156102065782518255916020019190600101906101eb565b5b5090506102149190610218565b5090565b61023a91905b8082111561023657600081600090555060010161021e565b5090565b90565b600082601f830112151561025057600080fd5b813561026361025e82610359565b61032c565b9150808252602083016020830185838301111561027f57600080fd5b61028a838284610390565b50505092915050565b6000602082840312156102a557600080fd5b600082013567ffffffffffffffff8111156102bf57600080fd5b6102cb8482850161023d565b91505092915050565b60006102df82610385565b8084526102f381602086016020860161039f565b6102fc816103d2565b602085010191505092915050565b6000602082019050818103600083015261032481846102d4565b905092915050565b6000604051905081810181811067ffffffffffffffff8211171561034f57600080fd5b8060405250919050565b600067ffffffffffffffff82111561037057600080fd5b601f19601f8301169050602081019050919050565b600081519050919050565b82818337600083830152505050565b60005b838110156103bd5780820151818401526020810190506103a2565b838111156103cc576000848401525b50505050565b6000601f19601f83011690509190505600a265627a7a72305820a28303c76c27e1ac43b28253ef3fe8a612e86f12f925a7d2bf2789eab730a7376c6578706572696d656e74616cf50037a265627a7a723058205c1f8286c7a421f1daf71f2515d1ff86e6bd5bc313a99d5f4704db1d2bd4dedc6c6578706572696d656e74616cf50037a265627a7a7230582093583bc805b0f8e11897f08ebfe18032424b4ec645f396b72f15ccfed1ee54556c6578706572696d656e74616cf50037",
  "source": "pragma experimental ABIEncoderV2;\n\nimport \"./Controller.sol\";\n\ncontract Router {\n  mapping (string => address) controller;\n  string[] public controllers;\n  int public controllersCount;\n\n  constructor() public {\n  }\n\n  function addController(string _controllerName) public {\n    controller[_controllerName] = new Controller(_controllerName);\n    controllers.push(_controllerName);\n    controllersCount++;\n  }\n\n  function removeController(string _controllerName) public {\n    controller[_controllerName] = address(0);\n    controllersCount--;\n  }\n\n  function getController(string _controllerName) public view returns (address) {\n    return controller[_controllerName];\n  }\n\n  function getNumberOfObjects(string _controller) public view returns (int) {\n    return Controller(controller[_controller]).objCount();\n  }\n\n  function getObject(string _controller, uint _objNumber) public view returns (address) {\n    return Controller(controller[_controller]).objects(_objNumber);\n  }\n\n  function POST(string _controller, string _params) public {\n    Controller(controller[_controller]).POST(_params);\n  }\n\n  function GET(string _controller, address _obj) public view returns (string) {\n    return  Controller(controller[_controller]).GET(_obj);\n  }\n\n  function PUT(string _controller, address _obj, string _params) public {\n    Controller(controller[_controller]).PUT(_obj, _params);\n  }\n\n  function DELETE(string _controller, address _obj) public {\n    Controller(controller[_controller]).DELETE(_obj);\n  }\n\n}",
  "sourcePath": "/Users/guilhermecampos/eth-api/contracts/Router.sol",
  "compiler": {
    "name": "solc",
    "version": "0.4.24+commit.e67f0147.Emscripten.clang"
  },
  "schemaVersion": "2.0.0",
  "updatedAt": "2018-06-24T17:43:06.395Z"
}