{
  "contractName": "Router",
  "abi": [
    {
      "inputs": [],
      "payable": false,
      "stateMutability": "nonpayable",
      "type": "constructor"
    },
    {
      "constant": false,
      "inputs": [
        {
          "name": "_controllerName",
          "type": "string"
        },
        {
          "name": "_controllerAddress",
          "type": "address"
        }
      ],
      "name": "addController",
      "outputs": [],
      "payable": false,
      "stateMutability": "nonpayable",
      "type": "function"
    },
    {
      "constant": false,
      "inputs": [
        {
          "name": "_controllerName",
          "type": "string"
        }
      ],
      "name": "removeController",
      "outputs": [],
      "payable": false,
      "stateMutability": "nonpayable",
      "type": "function"
    },
    {
      "constant": false,
      "inputs": [
        {
          "name": "_controller",
          "type": "string"
        },
        {
          "name": "_method",
          "type": "string"
        },
        {
          "name": "params",
          "type": "string[]"
        }
      ],
      "name": "callController",
      "outputs": [
        {
          "name": "",
          "type": "bool"
        }
      ],
      "payable": false,
      "stateMutability": "nonpayable",
      "type": "function"
    }
  ],
  "bytecode": "0x608060405234801561001057600080fd5b50336000806101000a81548173ffffffffffffffffffffffffffffffffffffffff021916908373ffffffffffffffffffffffffffffffffffffffff1602179055506107e3806100606000396000f300608060405260043610610056576000357c0100000000000000000000000000000000000000000000000000000000900463ffffffff16806217e0861461005b5780637105c2661461008457806397ac277c146100c1575b600080fd5b34801561006757600080fd5b50610082600480360361007d919081019061056b565b6100ea565b005b34801561009057600080fd5b506100ab60048036036100a69190810190610600565b6101ee565b6040516100b891906106a6565b60405180910390f35b3480156100cd57600080fd5b506100e860048036036100e391908101906105ac565b610331565b005b6000809054906101000a900473ffffffffffffffffffffffffffffffffffffffff1673ffffffffffffffffffffffffffffffffffffffff163373ffffffffffffffffffffffffffffffffffffffff1614156101eb5760006001826040518082805190602001908083835b6020831015156101795780518252602082019150602081019050602083039250610154565b6001836020036101000a038019825116818451168082178552505050505050905001915050908152602001604051809103902060006101000a81548173ffffffffffffffffffffffffffffffffffffffff021916908373ffffffffffffffffffffffffffffffffffffffff1602179055505b50565b60006001846040518082805190602001908083835b6020831015156102285780518252602082019150602081019050602083039250610203565b6001836020036101000a038019825116818451168082178552505050505050905001915050908152602001604051809103902060009054906101000a900473ffffffffffffffffffffffffffffffffffffffff1673ffffffffffffffffffffffffffffffffffffffff1660405180807f63616c6c4d6574686f642875696e743235362900000000000000000000000000815250601301905060405180910390207c010000000000000000000000000000000000000000000000000000000090046040518163ffffffff167c01000000000000000000000000000000000000000000000000000000000281526004016000604051808303816000875af19250505090509392505050565b6000809054906101000a900473ffffffffffffffffffffffffffffffffffffffff1673ffffffffffffffffffffffffffffffffffffffff163373ffffffffffffffffffffffffffffffffffffffff16141561043157806001836040518082805190602001908083835b6020831015156103bf578051825260208201915060208101905060208303925061039a565b6001836020036101000a038019825116818451168082178552505050505050905001915050908152602001604051809103902060006101000a81548173ffffffffffffffffffffffffffffffffffffffff021916908373ffffffffffffffffffffffffffffffffffffffff1602179055505b5050565b6000610441823561077a565b905092915050565b600082601f830112151561045c57600080fd5b813561046f61046a826106ee565b6106c1565b9150818183526020840193506020810190508360005b838110156104b5578135860161049b88826104bf565b845260208401935060208301925050600181019050610485565b5050505092915050565b600082601f83011215156104d257600080fd5b81356104e56104e082610716565b6106c1565b9150808252602083016020830185838301111561050157600080fd5b61050c83828461079a565b50505092915050565b600082601f830112151561052857600080fd5b813561053b61053682610742565b6106c1565b9150808252602083016020830185838301111561055757600080fd5b61056283828461079a565b50505092915050565b60006020828403121561057d57600080fd5b600082013567ffffffffffffffff81111561059757600080fd5b6105a384828501610515565b91505092915050565b600080604083850312156105bf57600080fd5b600083013567ffffffffffffffff8111156105d957600080fd5b6105e585828601610515565b92505060206105f685828601610435565b9150509250929050565b60008060006060848603121561061557600080fd5b600084013567ffffffffffffffff81111561062f57600080fd5b61063b86828701610515565b935050602084013567ffffffffffffffff81111561065857600080fd5b61066486828701610515565b925050604084013567ffffffffffffffff81111561068157600080fd5b61068d86828701610449565b9150509250925092565b6106a08161076e565b82525050565b60006020820190506106bb6000830184610697565b92915050565b6000604051905081810181811067ffffffffffffffff821117156106e457600080fd5b8060405250919050565b600067ffffffffffffffff82111561070557600080fd5b602082029050602081019050919050565b600067ffffffffffffffff82111561072d57600080fd5b601f19601f8301169050602081019050919050565b600067ffffffffffffffff82111561075957600080fd5b601f19601f8301169050602081019050919050565b60008115159050919050565b600073ffffffffffffffffffffffffffffffffffffffff82169050919050565b828183376000838301525050505600a265627a7a72305820118367cf5d6c00fae15b724576bb2d22803e4a755c2b5387e11b82a8922725ae6c6578706572696d656e74616cf50037",
  "source": "pragma experimental ABIEncoderV2;\n\ncontract Router {\n  address internal owner;\n  mapping (string => address) controller;\n\n  constructor() public {\n    owner = msg.sender;\n  }\n\n  modifier restricted() {\n    if (msg.sender == owner) _;\n  }\n\n  function addController(string _controllerName, address _controllerAddress) public restricted {\n    controller[_controllerName] = _controllerAddress;\n  }\n\n  function removeController(string _controllerName) public restricted {\n    controller[_controllerName] = address(0);\n  }\n\n  function callController(string _controller, string _method, string[] params) public returns (bool) {\n    return controller[_controller].call(bytes4(keccak256(\"callMethod(uint256)\")));\n  }\n\n}\n",
  "sourcePath": "/Users/guilhermecampos/eth-api/contracts/Router.sol",
  "compiler": {
    "name": "solc",
    "version": "0.4.24+commit.e67f0147.Emscripten.clang"
  },
  "schemaVersion": "2.0.0",
  "updatedAt": "2018-06-17T10:49:13.387Z"
}